:020000040800F2
:1000000058810020DDA9000871A8000873A8000825
:1000100000000000000000000000000000000000E0
:1000200000000000000000000000000075A80008AB
:10003000000000000000000077A8000879A8000870
:10004000B7110008571300086B1800086F18000854
:10005000731800087B290008572E00080372000857
:1000600081A8000813720008977300080B7D000830
:10007000DB8100087B8F000877A50008CBA800086B
:10008000D7A800080BA900084DAA00084FAA00082D
:1000900051AA000853AA000855AA000857AA000848
:1000A00059AA00085BAA00085DAA00085FAA000818
:1000B00061AA000863AA000865AA0008FDB5B2B0ED
:1000C0003A98049102A93B22885400200D9024A85C
:1000D000401C2F900DE00498329A9047049000281D
:1000E00001D100F001FF0D98401C0D903398401C89
:1000F000339033980178002910D02529EBD10020C6
:100100000790089009900A900B900C90002102240F
:100110000120149008201290339D05E00D9800F006
:10012000E5FE0800149901436D1C28782028F8D0BA
:1001300023280BD02B2804D02D2804D0302808D019
:100140000AE02143F0E708000421ECE70800082159
:10015000E9E708001021E6E72A280FD13498026861
:100160001068121D349B1A600F90002804D542427B
:100170000F920800042101436D1C12E000200F9033
:10018000654A09E00F9B934205DA9E00F3185B0075
:10019000181830380F906D1C28780300303B0A2B5C
:1001A000F0D328782E2803D00020C0430E9027E0FB
:1001B0006D1C28782A2808D1349800680268001D30
:1001C000349B18600E926D1C1AE02D2802D12D224E
:1001D0006D1C00E0002200200E900CE0002A09D1E6
:1001E0000E9B4D4EB34205DA9E00F3185B001818C3
:1001F00030380E906D1C28780300303B0A2BEDD36D
:1002000002A801872E78310041487844FF30C01C95
:1002100000F052FF002801D06D1C00E0002602A86B
:100220003A214654405C682804D1287868280BD1CC
:10023000622005E06C2807D128786C2804D1712051
:1002400002A93A2288546D1C15A8069028786946A0
:100250000870681C3390684602781000253833D047
:100260001C3800D116E2001F022800D812E2133811
:1002700001D100F065FD093800D10BE2801E01D1EB
:1002800000F0FBFD401E01D100F0A8FD401E022839
:1002900000D8FFE1001F01D100F0A0FD401F00D1F8
:1002A00052E1401E01D100F04BFD401E00D1F3E0B1
:1002B000C01E10D0801E01D100F042FDC01E01D131
:1002C00000F03EFD00F0E4FD252015A9087014980B
:1002D000079000F0E8FD349800680468001D349928
:1002E00008600594002C00D0C2E002A83B21405CCD
:1002F000002800D1B5E00024E443064878441430D7
:1003000000F022FF201A01D000F0EEFD00F0CBFD3E
:10031000FCA1000030A20000CBCCCC0C01236A462B
:1003200002A9280000F0ADFE002801D000F0DCFD9D
:10033000641EF3D13295079D15AC002D0FD0329E6F
:10034000227802A9300000F08BFE002802D4641C41
:100350006D1EF5D13296002801D000F0C5FD302089
:10036000694608700A9C002C0DDD329D01236A4607
:1003700002A9280000F085FE002801D000F0B4FD9D
:10038000641EF3D13295059C089D002D0FD0329E3E
:10039000227802A9300000F063FE002802D4641C19
:1003A0006D1EF5D13296002801D000F09DFD30275A
:1003B00069460F700B9C002C0DDD329D01236A46AF
:1003C00002A9280000F05DFE002801D000F08CFD9D
:1003D000641EF3D13295059808994418099D002DA3
:1003E0000FD0329E227802A9300000F039FE00289A
:1003F00002D4641C6D1EF5D13296002801D000F0A5
:1004000073FD684607700C9C002C0DDD329D0123A6
:100410006A4602A9280000F034FE002801D000F04E
:1004200063FD641EF3D1329502A83821405C400779
:1004300000D45EE62020694608700198002800DCA0
:1004400057E6019C329D01236A4602A9280000F06C
:1004500018FE002801D000F047FD641EF3D132954C
:1004600047E63F487844FF30C01F059000F01BFD71
:100470000E9D002D03D5200000F08AFE09E02A0021
:100480000021200000F08CFE002801D0001B00E0BD
:100490002800089000F007FD349800680268001DED
:1004A000349908600020C0430021104002AA03C212
:1004B00015A80590069A3C2302A803C8002904D178
:1004C000002802D10E9C002C14D05B1E05072D0FB6
:1004D00030353A2D08DAD55400090C0720430909B4
:1004E00004D1002802D105E02735F4E7059CD51892
:1004F000AC42EAD33C20C01A0890D11805910E995D
:10050000884208DA081A0A9002A8018FAA4A0A400B
:10051000028700F0C8FC002901D400F0C4FC02A945
:100520003822895C14220A40102A01D000F0BBFC5A
:100530000F99079A891A0A9A891A081A002801DC61
:1005400000F0B1FC00F0FAFB02A83B21415C00295D
:1005500008D00024E4434B487844FF302930CFE6EC
:1005600000A000003A21405C62286AD0682819D0B7
:100570006A2845D06C2806D071284FD0742831D015
:100580007A2821D06FE0349800680168001D349A01
:10059000106000297AD10024E4433B487844FF30BE
:1005A0001738ADE6349800680168001D349A106071
:1005B000002905D10024E44333487844CA309FE63B
:1005C0000D98088000F06FFC349800680168001DE9
:1005D000349A1060002959D10024E4432A48784411
:1005E000A6308DE6349800680168001D349A1060CA
:1005F00000294BD10024E443234878448A307FE625
:10060000349800680268001D34990860002A13D1EC
:100610000024E4431C4878446E3071E63498006846
:100620000268001D34990860002A05D10024E443C3
:1006300015487844523063E60D98C11703C200F0A4
:1006400032FC349800680168001D349A106000295B
:1006500005D10024E4430C4878442C3050E60D9832
:10066000087000F020FC349800680168001D349A7E
:10067000106000290AD10024E4430348784408307C
:100680003EE600BF909E0000A49E00000D9808600A
:1006900000F009FC34980368DB1D0720834334987D
:1006A000036003CB349D2B6002AB03C32023C80F30
:1006B00004D007982D2115AB19540DE002A8008F26
:1006C000204204D007982B2115AB195404E0C00731
:1006D00004D5079815A90B54401C079015A8079935
:1006E0004318059324AD02A8C0C8684600782021AD
:1006F000014368468170807861280BD00E980028ED
:1007000001D5062005E005D168468078672801D12B
:1007100014980E9002A803C808004C006415641CCD
:100720000ED109030CD003200890613A1A2A03D293
:100730002249794486310FE02149794482310BE026
:10074000002C0ED100030CD103200890613A1A2A24
:100750001DD31C4979446C310322180000F046FD7A
:10076000A1E301AA02A803C800F04DFD02AA03C23A
:1007700068468078612813D1059830210170811C6A
:10078000059169460978612905D1782104E00E496F
:1007900079443431E0E7582141700798801C079074
:1007A00002A803C892A20CCA02400B400ED1002A34
:1007B0000CD10024002660E1EFFF0000A89D00009E
:1007C000A89D0000AC9D0000A49D000068468078B4
:1007D000612800D099E00E98002801D5212000E082
:1007E000401C13901398401C2E90300039000022BA
:1007F000002300F01DFD02A830C802D280200006B0
:1008000045400198001F019024A90A7024A8461CA5
:100810002E98002832DD2E9F200029000022802300
:100820005B0300F01EFD29D81C2200F033FD0400FC
:100830000D0000F067FD2E90FF1F002F09DD00F076
:100840009BFD02000B002000290000F0FCFD0400CD
:100850000D00F01D07212E9A002A0ADD491E08D43A
:10086000401E13071B0F03701211F5E7401E0022F4
:100870000270491EFAD5C61D002FCDDC24A82F9981
:10088000711A24AA551C139A0C00914200DD140021
:10089000002C33D48C4205DA411C095D082901DBA8
:1008A0000F2100E00021220024AB9B1801E0641E10
:1008B0005B1E521E1E788E42F9D00F2904D1411CB6
:1008C000895C491C401C8154002A04D524AD641C59
:1008D0000198001D0190611E10D46A1868460078C6
:1008E00013783033DEB23A2E01DBC318C6331370EF
:1008F000491E521E0029F3D5694608700E9800283B
:1009000000D4B9E0601E0E90B6E07F007F08019829
:1009100068494843684900F00DFE0190072001999D
:10092000401A002805DD02003000390000F072FB9B
:100930000AE042420020614900F06CFB02000B001B
:100940003000390000F025FE6A469278662A02D10E
:10095000019A0A3200E006220E9B9A18142A00DD42
:10096000142224AB30241C705C1C02E030A803C8A5
:10097000139A002A40DD30AB03C3139230A803C89A
:1009800000F0D2FC2E9006460834042530000A21DF
:1009900000F0E4FD0F0030000A2100F0DFFD06004A
:1009A0003037601E077030000A2100F0D7FD0F00BD
:1009B00030000A2100F0D2FD0600A41E3037277057
:1009C0006D1EE3D108341398083813900028CDDD4C
:1009D0002E9800F0C1FC02000B0030A803C800F004
:1009E00032FD0022364B00F035FE30AA03C2C5E7C7
:1009F000FFFFFFFFFFFFFF7F2F98201A24A94D1C48
:100A000004E0401E0199491E01916D1C297830298E
:100A1000F7D069468978662902D10199491C06E018
:100A200069468978652901D1149900E000210E9A60
:100A30005418A04200DA441E002C1DD4844204DA6B
:100A4000285D342801DD392100E030212200681EB4
:100A5000831801E0641E5B1E521E1E788E42F9D080
:100A6000392902D1A95C491CA954002A04D50500E2
:100A7000641C0198401C0190019E13956846007803
:100A80006946487000F0A8FE406A00786946087020
:100A90000E9D20B2002804DC149C054878441030D8
:100AA00013906846807866280CD1761C24E000BF3D
:100AB000C49A000097750000A08601000000F03F76
:100AC00084D7974168468078672846D130B20321A1
:100AD000C943884247DBA84245DA761C02A8008F4A
:100AE0001299C0B2084203D120B2A84200DC05002E
:100AF00030B22D1A00D5002537B2002F00DDBAE044
:100B00000898411C08913021059A1154002D05DCEC
:100B100002A8008F1299C0B2084206D00898411C62
:100B2000089169460978059A11547842854200DA9D
:100B30006E4236B270420B90AD1920B2854200DA97
:100B40002C0024B20994220013990598089BC01820
:100B500000F04CFB281B0C90DAE0684640786128D6
:100B600018D170201BE020B2A84206DA02A9098F32
:100B7000129AC9B2114200D105006D1E00D50025A0
:100B800068464078672802D16520694607E045201D
:100B9000694604E068464078412801D150204870F9
:100BA0000898411C089113990978059A11541398D3
:100BB000411C002D05DC02A8008F129AC0B2104221
:100BC00019D00898421C08926A461278059B1A545C
:100BD000002D10DD641E20B2854200DA2C0022B206
:100BE0000598089BC01800F001FB24B20898001972
:100BF0000890281B0B900598089940186946497879
:100C0000017031B2002903D42B214170871C03E00D
:100C10002D224270871C4E42002412AD300008E0A5
:100C20000A2100F087FC30AA03C229703098641CA6
:100C30006D1C00B20028F3DC012C08DC684640780B
:100C400020210143652902D1302038707F1C002CFF
:100C500009D1302038707F1C07E0641E12A8005DA7
:100C6000303038707F1C002CF7DC0598089940184C
:100C7000381A09904CE020B231B288421DDA22B213
:100C800013990598089BC01800F0B0FA24B2089890
:100C900000190890391B0B91002D05DC02A9098F62
:100CA000129AC9B2114206D069460978059A1154C0
:100CB0000998401C09900C952AE032B213990598C6
:100CC000089BC01800F092FA0898C0190890A41B5D
:100CD000002D05DC02A9098F129AC9B2114205D074
:100CE000411C089169460978059A115420B2854241
:100CF00000DA2C0022B21398C1190598089BC0187D
:100D000000F074FA24B2089800190890281B0B9080
:100D100002A83821405C14210140102900D0C2E013
:100D20000798089940180B994018099940180C9990
:100D300040180F99884200DBB5E0081A0A90B2E02B
:100D400002AA3A20105C622808D068280ED06A28CF
:100D500014D06C281DD0712810D01AE03498016886
:100D60000868091D349B1960C0B218E03498016806
:100D70000868091D349B196080B210E0349803683C
:100D8000DB1D072083433498036003CB349C23602E
:100D900006E0349801680868091D349B1960002139
:100DA00002AB03C3108F1299C0B208425BD002A8F5
:100DB00003C8002901D1002855D0684600782021B9
:100DC000014378294FD1079815A930220A54401CB5
:100DD000421C07926A4612780A5444E002AA3A205A
:100DE000105C622808D068280ED06A2814D06C28BD
:100DF0001DD0712810D01AE0349801680868091DC8
:100E0000349B196040B218E0349801680868091DE5
:100E1000349B196000B210E034980368DB1D072092
:100E200083433498036003CB349D2B6006E03498F1
:100E300001680868091D349B1960C11702AB03C320
:100E4000002902DA07982D2109E0108F204202D0F4
:100E500007982B2103E0C00705D50798202115AA84
:100E60001154401C079015A8079940180590684632
:100E7000017802A800F03CF815E014980790349827
:100E800000680168001D349A106015A801700AE01E
:100E9000252015A908701498079068460078002846
:100EA00001D04A7007940F980799401A0A99401A7E
:100EB0000899401A0B99401A0999401A0C99401A3E
:100EC000019002A83821405C400701D5FFF733FAB2
:100ED0002020694608700198002801DCFFF72BFAF2
:100EE000019C329DFFF71AFA0020C04335B0F0BDD7
:100EF000F2B586B0040025696F2901D1082707E003
:100F0000084620210143782901D00A2700E0102754
:100F10003C2603CC083C04AA03C26A46127E642A1B
:100F200003D06A46127E692A09D1002907DA04A88B
:100F300003C800220023121A8B4104A80CC004A885
:100F400003C800290DD100280BD1206B002808D13F
:100F5000082F3DD13820205C000739D53B263020B2
:100F600035E00294009504A830C8761E0196200052
:100F700029003A00FB1700F035FC3032D0B23A2895
:100F80000DDA00988255200029003A00FB1700F086
:100F900029FC04000D0007D1002C05D10AE06846A9
:100FA000007E8218AF32ECE70298C0680099891978
:100FB0008842DAD3029C009D082F09D13820205C9A
:100FC000000705D5A85D302802D0761E3020A85530
:100FD0003C20801BA061A919E160216B884206DAE0
:100FE000081A2062208F1C490140218710E0002947
:100FF0000ED53821615C14220A40102A08D1616B99
:101000006269891A226A891A081A002800DD20629A
:1010100007B0F0BDF8B50026104F04000D00009297
:1010200014E0C00707D532003B002000290000F083
:1010300011FB04000D0000984010009030003900B2
:1010400032003B0000F006FB06000F00009800286D
:10105000E7D120002900F4BDEFFF0000000024408C
:1010600010B503000C001100A0689847A06000288C
:1010700004D0E06A401CE062002010BD0020C043A4
:1010800010BDF8B50024002B11D007000E0014008D
:101090001D002178B068B847B060002809D0F06A18
:1010A000401CF0620020641C6D1EF2D10400200080
:1010B000F2BD0020C043F9E7C9B202788A4203D0EA
:1010C000401C002AF9D100207047F1B40168421891
:1010D00041684808131800988068C9071ED549461A
:1010E00040181BE01778521C0770401C761EF9D17F
:1010F000002C13D01678521C89080D40032D01D105
:101100001578521C290271184D424119A41C05D0B2
:101110000D78491C0570401C641EF9D19A420FD00D
:101120001178521C032503260E4002D11678F61CB6
:10113000521C0C090F2CD9D114780F34521CD5E74E
:1011400000980C30F2BC704780B5002801D100BF78
:1011500007A006490B68002B03D0222200219847E4
:1011600001E000F07DFB222002BD00004C7D00204C
:10117000636F6E73747261696E742068616E646C03
:1011800065723A20626164206D6573736167650002
:10119000431C0178401C0942FBD1C01A70472E0045
:1011A000C9B2521E05D30378401C8B42F9D1401EB0
:1011B000704700207047FEE770B4103A03D378C937
:1011C000103A78C0FBD2530701D318C918C001D513
:1011D00008C908C0D20704D30B880380891C801C6F
:1011E000002A01D50B78037070BC70478B0701D1C2
:1011F0008307E1D0124205D00B78491C0370401CD4
:10120000521EF9D1704710B5144600F002F8226062
:1012100010BD4A0053155B1C08D0520D06D00323A5
:101220001B02FE3AD21A1305C91A704700227047F2
:1012300030B4012464054D00EC420BD85D00EC4253
:1012400008D80C001C4364000443144304D29942A0
:1012500000D1904230BC7047FCD08B42FAD1824220
:10126000F8E730B4012464054D00EC420BD85D0072
:10127000EC4208D80C001C4364000443144304D21D
:101280008B4200D1824230BC7047FCD09942FAD1E7
:101290009042F8E7124217D40023DB435B0D9C46D3
:1012A0004B005B0D06D0634504D09B18634502D20A
:1012B0001205891870476246090D1143090500207F
:1012C00000B500BF00BF00BD52424B005B0DF1D026
:1012D0005B1C5B05EED25B0D934102D91205891AA6
:1012E00070470BD10B031B13C90FC907821C0020C9
:1012F00043411343E4D912051143E1E7C90FC9077C
:101300000020DDE7F4464A1805D200F00FF801D5B9
:1013100080174008604700F009F80121C90788429A
:1013200000D90800404260474A1812D2400DC90255
:1013300008430121C9070843520D40210901521AEF
:10134000521C06D452421F3201D4D0407047C017FD
:10135000704700207047FEE7010042221201D21EB2
:10136000004207D002D4521E0018FCD5C10A400525
:1013700012058918704700000100EED54042F4467E
:10138000FFF7EBFF0122D207114360478B4200D1E8
:10139000824205D98446100062468C461900634695
:1013A000DF184C18640D7F0D3AD0661C760537D0D7
:1013B000E61B352E34DCDB022B43DB0A0C0DC902A5
:1013C0002943C912202E0DDB1700203E06D01F0036
:1013D000F741F3405F400026012A7741C018714170
:1013E0000DD217E01700F741F2405740F3415A4041
:1013F000B340F3405A400026801859410AD3A21C3A
:1014000052050FD0C207012F724117004008CB07C9
:1014100018434908641C24054208AF4170416141EA
:10142000F0BC7047641C21050020F9E76B4010E018
:101430006B40ABE7F742F3D1E943F1E72442EFD148
:1014400000200021ECE7F0B40125ED070F005F401C
:10145000EED40C00871A9C4105D2C01BA141D219C1
:10146000634169406B40AE0ADF184C18F442E1D288
:10147000640D7F0DE2D0E61B362ED1DCDB022B4360
:10148000DB0AA4460C0DC9022943C90A012E28DC37
:1014900004D1D6075208DF073A435B08EF0A7642C9
:1014A0009041994114D039423BD1B619404149414C
:1014B000761C394204D1761C001849413942FAD0D1
:1014C000B9436746B74208D9A41B24052143A7E7BF
:1014D0000042EAD13642E8D1A2E7E40AE10700205F
:1014E0009EE7202E0BDD203E1F00F340F7415F40BA
:1014F000012A002257417E42984191410BE017009A
:10150000F741F2405740F3415A40B340F3405A404C
:101510007E42904199410A0303D2641EB6194041AC
:1015200049410027641E24054208AE4178416141CB
:10153000F0BC7047CA0F00D0494203105A400DD08A
:1015400004B500D3404200F009F8009AD20701D355
:101550004942124200D5404204BD0000094214D065
:1015600088420FD30122030C01D10004120400238E
:1015700000185B418B4200D35B1A5241F8D319002B
:101580001000704701000020704708B500F06EF9A8
:1015900008BDF0B40E005E400125ED072E40B446B4
:1015A000AE0ADF184C18F4423BD2F74241D2640D28
:1015B00043D07F0D38D0E41BC902DB0229432B4303
:1015C000CF0ADB0A0600B61A9F4104D2641EB61980
:1015D0007F41B6185F416812800D241800188442BC
:1015E00022DCE80C0021B6197F41B61A9F4102D2D5
:1015F000B6185F413F1C40414941F4D3241C21DD12
:101600002405B6197F41B61A9F4105D33743C60753
:1016100037430026012F7041614166463143F0BCDB
:101620007047FCD1F74205D20020C1434905490863
:10163000F3E704D00020C143F1E77F0DFAD000208A
:101640006146ECE72442FAD1401C61410F03F6D316
:101650000020E2E7F0B50E005E400125ED072E40C8
:10166000B446AE0ADF184C18F44208D2F7420ED244
:10167000640D01D07F0D12D100206146F0BD05D16F
:10168000F74201D87F0D05D10020C143F0BDFBD149
:10169000640DF9D00020C143490549088FE0E419E1
:1016A000C902DB0229432B43DB0A460DC00231434A
:1016B0008E4630B487B295B27D432E0CADB2140C79
:1016C0007C43A419260C240425439CB27C43A41912
:1016D000190C7943270CC919A4B20F043C43090C17
:1016E000000C97B247432E0CBE193543ADB2170C10
:1016F0004743360CBF19A6B2BF193E043543240C2C
:101700003E0C36199FB24743BF19BCB23E0C891933
:101710001F0C47437F183E043443390C704680B297
:1017200097B247432E0CBE193543ADB2170C474351
:10173000360CBF19A6B2BF193E043543240C3E0C2B
:1017400036199FB24743BF19BCB23E0C89191F0C12
:1017500047437F183E043443390C77463F0C90B220
:1017600078432E0C80190604ADB22E43050CA0B2AE
:101770002D18120C7A435019020C80B2240CA418B4
:101780009AB27A43121914042043120C89181B0CC4
:101790007B43C91830BCEF0A394203D1B619404126
:1017A0004941641E6F12BF0DE41B0BDBFF19BC42E5
:1017B00011DA240500274208AE41784161416646AE
:1017C0003143F0BD641C05D1401C6141CF0201D3FF
:1017D0004908F4E750E75DE7014870470000000062
:1017E0005401002012422DD0994231D970B5002504
:1017F0001B4209D00C00002112E01100FFF7AEFEE1
:101800000A000021002370BD0942F6D00024012601
:1018100049186441944200D3A41A7641F8D33100A8
:10182000012601E0764109D2001864416D41A41AF5
:101830009D41F7D2A4185D41B619F5D330002200BE
:101840002B0070BD1B42CFD108B500F011F808BDC8
:1018500001D19042CAD202000B0000210020704743
:1018600080B5012000F006F801BDFEE77047FEE7F5
:101870007047FEE780B500F007F8024A1100182013
:10188000ABBEFBE72600020010B500F03BF80200FB
:1018900000230024E4431068A04203D0110002207A
:1018A000ABBE13605068A04203D0111D0220ABBE36
:1018B000536010BDF0B583B0040000F023F8A10020
:1018C00047183D680026F643B54216D100BF00BF59
:1018D0003D68B5420FD100BF09A00090002C01D196
:1018E000002000E0042001900320029069460120BE
:1018F000ABBE05003D6000BF00BF280003B0F0BDD7
:101900003A74740000487047D4010020F1B584B0E7
:101910004668B54D6E6204984089142800DAB9E132
:10192000B24F3968786900F055FF002800D0B1E166
:10193000387DF0210140E02900D1ABE138001430BE
:1019400000903B00103304980289062100F0C7FF85
:10195000002800D09EE1307B717B0906090C08430A
:1019600000F0F8FF000B8100142900DA92E10498DE
:101970000089884200DA8DE10C00143C2C830020A1
:10198000A86204984089884204DB6C83049801F0C3
:101990000BF91BE01421049801F006F90498418921
:1019A0006983641AA4B2049801F0FEF804980068F0
:1019B0004189A14200DA6DE14168A962210001F08C
:1019C000F3F804980089001B049908813078717835
:1019D0000906090C084300F0BDFF3070000A707062
:1019E0006C6AA078E1780906090C084300F0B2FFA0
:1019F000A070000AE0706C6A201D01F021FA00F06E
:101A0000AEFF0600211D01F027FAEE626C6A20008D
:101A1000083001F015FA00F0A2FF0600210008319D
:101A200001F01AFA2E636C6AA07BE17B0906090CAF
:101A3000084300F08FFFA073000AE0736E6A307BEA
:101A4000717B0906090C084300F084FF8006800EB4
:101A500028700498008928842978890705D0411CBA
:101A6000298489B2814200D214E10021BB48046874
:101A7000342301E02100E468002C58D0207A0028AB
:101A800005D07A68D25C521CD2B29042F2D1307842
:101A900072781206120C1043228B8242EAD1B0787F
:101AA000F2781206120C1043E28A8242E2D1606898
:101AB0003A699042DED120687A699042DAD10029F1
:101AC00006D0E068C860A5480068E060A3480460EC
:101AD0000020686004980089A8810498A8606E615D
:101AE000002068636870E8832878000705D50498AB
:101AF000407B012101430498417326004436306B3A
:101B000000280BD0200001F021FD0C21C9438842A0
:101B100006D0306B002801D0288C002800D123E1AA
:101B2000608D002802D1200002F072FB64E3BE4801
:101B3000006800E0C068002851D0017A002905D073
:101B40007A68D25C521CD2B29142F3D13178727869
:101B50001206120C1143028B8A42EBD1B178F27853
:101B60001206120C1143C28A8A42E3D141683A69D3
:101B70009142DFD101687A699142DBD129784A0725
:101B800000D564E3022211421DD0E96A436AC91AF2
:101B90001ED4038DC91A00291ADC31787278120616
:101BA000120C1143B278F3781B061B0C1A430291F6
:101BB00001923900103100913B001433E96A2A8CFC
:101BC0008A18296B41E3C90702D59849096801625F
:101BD000298C00295ED0418B0A434283C1E00090EA
:101BE00093490C6806E000BFA47C0020E07C002044
:101BF0000094E468002C00D108E3207A002805D086
:101C00007A68D25C521CD2B29042F1D1B078F278AC
:101C10001206120C1043E28A8242E9D120687A69E6
:101C2000904203D0002C01D00028E1D10098002878
:101C300004D0E268C2600868E0600C602878410760
:101C400028D4C10616D5307871780906090C0843E6
:101C5000B178F2781206120C11430290019138000B
:101C6000103000903B001433E86A298C4218296B2D
:101C70002000EAE280070DD5607D01F005FD0090AF
:101C8000002808D1A369002B04D00022D2430021F0
:101C900020699847DBE27869009908603869009903
:101CA0004860E08A0099C882307871780906090C8A
:101CB000084300990883032000990875EE6A701C98
:101CC000009948620099C862009801F0BEFD009931
:101CD000886500990865009948640099C865761E72
:101CE00000984665206900990861009E6036B461DD
:101CF000607A0C21014000984172207A00990872A4
:101D000016480168009AD1600099016002F034FB26
:101D100001207F490870009800F017FD696A887BF0
:101D2000CA7B1206120C1043308070800098001D90
:101D300002F0CCFB00990A1D01000098408E01F0D2
:101D40008AFD009948861221009801F01CFF0028A6
:101D500006D00021009801F077F978E220000020F9
:101D6000009801F053FF72E2AC63287841071AD55E
:101D7000207D022804D1286BF168884253D103E00A
:101D8000616AE86A884207D168780821014369706E
:101D9000608B604901409AE1401A44D4218D401A79
:101DA000002840DC90E1800704D5207D022801D086
:101DB0000328F7D1A07EC00602D41C480068206228
:101DC00020009630002141700170200000F0BDFC21
:101DD000E86A298C411803912978102211406A463B
:101DE00011700421227D921E072A1CD801A35200E3
:101DF0009B5A9F44280258014A01A8005A004A01F0
:101E00003E000E00200000F081FA102029780142E7
:101E100009D0296BF268914205D1B16A002902D13B
:101E200069780843687078E12400002014000020DD
:101E30001C000020200000F069FA2878C006F2D5C6
:101E4000286BF1688842EED1B06A0028EBD109E036
:101E5000200000F05BFA68788006E4D5608B0221F0
:101E600001436183200001F0A5FC2B490868A042D2
:101E700003D1C068086007E00800002804D0C168EA
:101E8000A142F9D1E168C1600020E0600120204951
:101E900008700A20207521480168E16033E02000C5
:101EA00000F034FA286B2978102211406A789206E3
:101EB0003CD5002934D0F168884231D1B06A00287D
:101EC0002ED1608B022101436183200001F072FC5E
:101ED00011480068A04204D1C0680F49086007E0BB
:101EE0000800002804D0C168A142F9D1E168C160AE
:101EF0000020E0600120064908700A20207507488C
:101F00000068E0600548046002F036FA05E100BFB1
:101F100010000020FEFF0000200000202400002010
:101F2000608B022101436183082053E00029EDD03A
:101F3000F16888420AD1B06A002807D1062049E03A
:101F4000200000F0E3F9687880063ED4E5E06A46B8
:101F50001278002A58D0286B626C801A401E3BD43D
:101F6000286BF268801A002836DC2175706B002817
:101F70000DD08369002B0AD00022210020699847E8
:101F8000002805D00C21C943884200D134E1F3E098
:101F9000200000F0BBF9E88B002801D0401EE88348
:101FA000608E4200BB4B9A4201D9009200E0009340
:101FB0008100009FB94201D2830002E09A4200D919
:101FC0004300B3806878800605D5608B0221014309
:101FD000618307202075A0E0696A08784A781206B4
:101FE000120C10438A78CB781B061B0C1A43029004
:101FF00001923800103000903B001433039A296B93
:10200000200002F0E5F888E029788907FBD5616AAD
:10201000491E884202D1200001F0EDFF7DE02A78C0
:1020200012231340122B54D12A6B636C5B1C9A420F
:102030004FD1421C6262E2622A6B32606B6A9A7B09
:10204000DF7B3F063F0C3A43B283F283401E306190
:102050002175201D02F03AFA221D0100608E01F068
:10206000FAFB41008B4B994200D90B0082009A4247
:1020700003D3884A914200D94200B280718C491E34
:102080007184F16A002903D1B16A0A68B26201E081
:102090000A68F2626086080001F0A3FAF06A00287C
:1020A00002D10020C04303E0002100204222A154BD
:1020B0002086336C002B07D000222100206998472E
:1020C0000C21C943884239D0608B022101436183CE
:1020D00023E06846007800281FD0696A08784A78AB
:1020E0001206120C10438A78CB781B061B0C1A437D
:1020F000029001923800103000903B001433039A94
:10210000296B200002F064F84220205C062804DAE3
:1021100000202086200001F064FF687800070ED5BB
:10212000B26C002A03D00D21C943206990472100D9
:10213000734801F064FB200000F0A3FE5CE0EA8B32
:10214000002A0BD0B36B002B06D0210020699847E2
:102150000C21C94388424FD00020E883200000F0C2
:102160007BF8002848D16A6B002A1ED0A07EC006EA
:1021700006D5100000F055FD200000F0DFFF3BE029
:10218000F06B002805D0002321002069F76BB847C9
:1021900003E00023210001F031FA0C22D2439042E7
:1021A0002AD0002801D0686B306320206978014272
:1021B00018D0316B002903D04A7B1043487311E0DB
:1021C000208D5049884201D0401C2085F66B002E9E
:1021D00008D00023002221002069B0470C21C94308
:1021E000884209D00020A863200000F035F80028BC
:1021F00002D1200001F00AFD0024AC636C63A868E2
:10220000002827D000F00DFDAC6023E0307B717B0F
:102210000906090C084300F09DFB400717D43078ED
:1022200071780906090C0843B178F2781206120C8D
:102230001143029001913800103000903B0014339C
:10224000E86A298C4218296B002001F0C1FF04982C
:1022500000F0E7FC05B0F0BD10B510212A4A527815
:102260000A4214D00400608B084207D18C20225807
:10227000002A03D00E21C94320699047210020483D
:1022800001F0BDFA200000F0FCFD012010BD00208F
:1022900010BD00001C110000F8B51B4D07000C001C
:1022A00010E026002468706800F0E5FC6621795A89
:1022B000081A66217852E88B31894018E88330008B
:1022C00001F08FF9002C19D02069001D00F0B8FD35
:1022D00000F045FB06002169087B4A7B1206120CC0
:1022E000104300F037FB8007800F00D001202189C8
:1022F00071180818296B401A0128D2DB2000F2BDA2
:1023000020000020680B0000A47C0020FEB5050022
:10231000A14E3078C00600D423E12C004434626919
:10232000A08B801800902369716AF06A1F1A0ED47E
:1023300002D1336BD31A0AD4336B9A4218D18A7BF9
:10234000CB7B1B061B0C1A43A38B934210D28A7BB8
:10235000CB7B1B061B0C1A43A2836021695A6222A5
:10236000AA5A914200D21100E1832061306B606172
:10237000326B686C101A29004231002829DC308C3D
:10238000002823D16069A38BC018009B98421DD1FF
:102390003020285E002819D4686C904216D1487805
:1023A000421CD3B2984200D24A704878042807DB16
:1023B000A1886A8E8A1893B28B4200D2774AA28093
:1023C000032802DB280001F04CFEA7E00020487043
:1023D000A4E0401E00D59EE0E068101A002800DD51
:1023E00099E0688B430706D5C94B03406B83E088AF
:1023F000A0800020E08400200870A0883C23EB5ED1
:10240000DB103E27EF5FDB194027EB536B6CD31AD1
:10241000019300234B702260297D042922DBE18C8B
:10242000E388984237D26A8B120501D5012200E079
:1024300002226B8E6F463B80019FBC4617006B46A5
:102440001B887B436746BFB29BB29F4201D2019A71
:1024500002E06B461B885A43821893B2834218D31A
:102460001000E184A080A36AAAA2E16A2800FFF715
:1024700013FF0300E36200BFA8A2A16A2800FFF7D0
:102480000BFFA0620021E06A002817D10020C043A2
:1024900015E0424AE4E7019A8A1893B28B4201D3CD
:1024A000110000E03D498AB28242DAD3091A6A8EED
:1024B000821893B28342D3D23848D2E700202886CC
:1024C0002977A06A002800D1A184218CF28B891879
:1024D0002184698B090521D5E16A00290CD10028E6
:1024E00014D00069001D00F0ABFC00F038FAA168C0
:1024F000081A002812DC09E00869001D00F0A0FCA1
:1025000000F02DFAA168081A002807DC688BAB4997
:102510000140698302E0280001F07AFE686B002820
:102520001FD0A96B326B891A1BD53C21695EA44A66
:102530001268101A00B2CA10821A8918100401D544
:1025400050420200A9873E20285E82188010101A8F
:10255000E8870904C91400B2081840216852002015
:102560006863F16A308C002800D1C5E02A7D072A13
:1025700000DBC1E06A6A531A00275C1E21D4181AD6
:10258000401C00281DDCB068511A89B2B289521A69
:10259000B2810289521A08E0A47C0020FFFF0000EB
:1025A000C91A89B202814781006843898B42F7DBEF
:1025B00000F0FAFA686AF0627169091D00F04CFCDB
:1025C00005E0881A03D5688B022101436983686A94
:1025D000F16A0A1A00D58BE02B8DD21A521C002A00
:1025E00000DC884200D083E07169087B4A7B1206D8
:1025F000120C1043032400F0ADF903210140080040
:1026000000D00120B1890918288D8AB2904244D2A5
:102610007269107B537B1B061B0C1843318400F03E
:1026200099F9C00718D57169087B4A7B1206120C0C
:10263000104300F08FF901003E20084000F08AF9B5
:102640007269117B537B1B061B0C19435D4B0B40BE
:1026500018431073000A5073288DB0817169087B8C
:102660004A7B1206120C104300F074F9800702D561
:10267000B089401EB081B189B06800F039FA716943
:10268000087B4A7B1206120C104300F063F90440E9
:10269000200000D00120B1890918F06A8AB28018A0
:1026A0006862288D401A28853184280000F04CFD8E
:1026B000B0680189002901D07063B7607169087B37
:1026C0004A7B1206120C104300F044F9C00703D5F0
:1026D0007078202101437170688BC10705D53A4A93
:1026E0000240022111436983F7BD01210143FAE74A
:1026F000280001F08DFDF7BD686A081A04D4298D01
:10270000401A401C0028EFDD688B0221EEE7000034
:10271000FBFF0000756E61636B656400756E736529
:102720006E7400002948828B1100521C8283826AD9
:10273000002A02D0438B994203DA406A4018007D98
:102740007047C81AC0B2105C7047F8B51F4C278B91
:10275000002F2BD00021A18305000CE0FFF7E2FF42
:102760000602FFF7DFFF064319498E4201DA300007
:1027700000D14E1E6E86A08BB84217D2FFF7D2FF53
:10278000002813D0022809D0F5D3FFF7CBFF022889
:102790000CDBA18B0818801EA083ECE7FFF7C2FFBB
:1027A000042803D1A18B891C8F42D7DAF1BD0748D9
:1027B000417810220A43427070470000FFF7000082
:1027C00014000020FFC00000FEFF0000A47C0020D9
:1027D000B5050000C24312D0002810D031228A5C17
:1027E00092070ED54A6890420BD089680B000340CF
:1027F0000A40934205D1CA431040904201D10120C2
:1028000070470020704738B500236C462380C2070C
:10281000D20F0BD0002909DD04786D466C70401C86
:10282000491E03E004881B19801C891E0129F9DC5C
:10283000002902DD0078694608706846008818188B
:10284000010C80B20818010C80B20818002A06D0CA
:102850000102FF2212020A400004000E104380B25F
:1028600032BDF7B508991A6893B2120C9A18096824
:102870008BB2D218090C51180A0C89B251180A0CE3
:1028800089B256180024FF273F02050013E069892A
:102890006868FFF7B8FF3018010C80B20E18A87AEC
:1028A000C00707D5200001244440300238403104DD
:1028B0000E0E06432D68002DE9D1002C04D0300205
:1028C00007403004060E3E4368460489007900F054
:1028D00041F83518200000F03DF8281805E01CB537
:1028E000049C0094FFF7BDFF16BD010C80B20818D0
:1028F000010C0918C84380B2FEBD80B5FFF783FF05
:10290000C04380B202BDF8B500240026FF273F0275
:10291000050013E069896868FFF775FF3018010C3E
:1029200080B20E18A87AC00707D5200001244440C1
:102930003002384031040E0E06432D68002DE9D1D7
:10294000002C04D0300207403004060E3E43F04312
:1029500080B2F2BD0102000A084380B2704701064E
:102960000202FF231B0413400B43010AFF22120241
:102970000A401A43000E10437047FEE770B5049CEE
:10298000059D002606604160028143810473457302
:1029900001218173C67370BDF8B584B00C001500B9
:1029A0000600681E08D0403806D0FF214231401A88
:1029B00009D0FE3843D036E0002000F067F8070069
:1029C000380005B0F0BD002769464D81039600260A
:1029D000092001F0D9FF050021D02A49039AD21C11
:1029E000294B1340C91AA0B289B2884200D9080005
:1029F0006946088100200190029800140090684602
:102A00000389A2B2039829181031C91C03208143FD
:102A10002800FFF7B3FF002F07D12F0006E0380092
:102A200001D000F0FEF80020CBE735602E006846AC
:102A30000089241A002003902004C9D1C0E7E11CBA
:102A400003208143F01C03229043421810001030F1
:102A500092B28A42E7D382B28A42E4D380B202F0D1
:102A6000BEF80700DFD0002001900095230022006F
:102A7000B9191031C91C032081433800FFF77EFFCC
:102A80009EE70000F4050000FCFF0000FEB5040016
:102A90000D001600082001F077FF070001D100208B
:102AA000FEBD2A002100002001900096130038008E
:102AB000FFF764FF3800FEBD3EB5079CC01C032530
:102AC000A8434518AC4201D200203EBD069C002C14
:102AD00001D0201800E000201C0002230193009286
:102AE0000B000A0001002000FFF748FF20003EBD58
:102AF0000289914200D3704738B5521A92B205E06C
:102B0000C91A89B203899B1A0381006843898B42E1
:102B1000F6DB0C000500287B00070CD19C420AD094
:102B2000687B800707D46868401B011989B22800B8
:102B300001F0E8FF05006C81688928812868002879
:102B400001D000F06EF80020286031BD70B500287B
:102B500016D080235B02994212D200291CD00B00B0
:102B600005895C19A5B29EB2B54209D3057B2D0635
:102B700008D542684D42511902001032914206D2E6
:102B8000012070BD002AFBD042684D4251194160BE
:102B90004189C91841810481002070BD80B500229F
:102BA000FFF7D4FF02BD000010B500280DD0802231
:102BB0005202914209D2002911D08AB2438993422C
:102BC00005DA00BF07A002F071F8012010BD4468CB
:102BD00061184160991A41810189891A0181002097
:102BE00010BD0000696E6372656D656E745F6D6126
:102BF000676E6974756465203C3D20702D3E6C6580
:102C00006E00000080B50B0003D55942FFF7CCFFE2
:102C100002BDFFF79BFF02BD80B50122FFF7F2FF67
:102C200002BD002800D1704738B500240100887B20
:102C3000401E887300061CD10D68087B0007000F3A
:102C40004A7B920703D50800096988470EE00228ED
:102C500001D1092002E0012803D1082001F0A8FEDB
:102C600004E0002802D1080001F0E7FE641C2900FE
:102C7000DDD1E0B232BD0100002001E0401C096856
:102C80000029FBD180B27047002802D0817B491C0B
:102C90008173704710B5002801D0002908D15C4825
:102CA00002F004F810BD03890C891B190381100080
:102CB0000268002AF7D102890B89D21802810160CB
:102CC00010BD0000F8B500250027002805D0002918
:102CD00003D002890B899A4201D24E4839E006009E
:102CE0000C006089C01B7189491B814201D300908F
:102CF00000E00091009A6068C11970684019FEF701
:102D000075FA00982D183F1861898F4201D300276A
:102D1000246871898D4203D100253668002E14D0B5
:102D2000002C06D060892189884202D120680028C1
:102D300013D1002E06D070893189884202D13068C3
:102D400000280AD1002CCCD10DE0002C0BD000BF04
:102D500006A001F0ABFF0F2003E0374801F0A6FF0B
:102D60000520C043F2BD0020F2BD0000705F746F0B
:102D700020213D204E554C4C00000000FEB50024A3
:102D80000094002802D100BF19A003E0019100299E
:102D900004D12A4801F08AFF0020FEBD060015007C
:102DA000180016E0091A89B2AFB28F4200DD0F0099
:102DB0003A00716880B209180198009B9BB2C01854
:102DC000FEF714FAE4190098C0190090ED1B0020DA
:102DD000366829040AD007E0718982B2002AE1D05E
:102DE0008A42DFD3401A3668002EF5D1A0B2FEBD6C
:102DF000706275665F636F70795F7061727469612C
:102E00006C3A20696E76616C6964206275660000B8
:102E100058A7000878A5000838B514000A002189D1
:102E2000FFF7BAFD050001D1002032BD2100FFF7F8
:102E300049FF280032BD0000A8A500082CA8000802
:102E4000C3788278417800781B021A430902120481
:102E5000084310437047FEE784460870000A487034
:102E6000000A8870000AC8706046704780B501F09B
:102E700031FF8004800C8021C901401A4749088035
:102E800001BD80B50100012001F092FD01BD80B5BA
:102E900000F026FB42480178491C0170C80701D5A3
:102EA00000F0A6F901BDFEB50400207D0126984D75
:102EB0000027002935D0042801D0072831D1616FBF
:102EC000002903D1218D934A91422AD0208B029070
:102ED000E08A0190201D00902300626A216D20008D
:102EE00001F076F9200000F065FC2869A04203D1CA
:102EF000C068286107E00800002804D0C168A1422A
:102F0000F9D1E168C160E7602E7083480068A04293
:102F100003D1FFF74CFC0020FEBD2000FFF7B1FFFE
:102F2000F9E7002803D002282DD013D332E0E08A3D
:102F30000028F2D0A868A04203D1C068A86007E0CA
:102F40000800002804D0C168A142F9D1E168C1603D
:102F5000E760E2E77148B1004158096804E08A6F10
:102F6000A24200D18F67C9680029F8D1761C042ECF
:102F7000F1D3210028000C3000F041FC2100022098
:102F800001F016FDC7E721002800103000F037FCE3
:102F90002E70C2E7200000F005F8FEBDDC01002025
:102FA000537D002038B50400207D032804D0042878
:102FB0000AD0072814D01AE0200000F0B8FD050060
:102FC00007D10520207506E0200000F0B0FD0500C7
:102FD000F7D0002D0DD1200000F018FE280032BDE2
:102FE000200000F0A4FD0500F3D10920EAE700204D
:102FF00032BD0020C0438542F0D1608B08210143DF
:103000006183F4E780B5002806D100BF08A001F075
:103010004DFE0F20C04302BD017D012903D0418B2D
:1030200010220A4342830121FFF73DFF02BD000049
:103030007463705F636C6F73653A20696E76616C60
:103040006964207063620000F0B587B0040003D1AA
:1030500033A001F02BFE58E0207D2D4D0A2808D129
:1030600021002800143000F0CAFB2000FFF709FF00
:103070004BE0002200270026236D0693636A059328
:103080008C23E358039323690493E38A002811D126
:10309000002B18D0A868A04203D1C068A86007E040
:1030A0000800002804D0C168A142F9D1E168C160DC
:1030B000E26008E00F001E0021002800103000F040
:1030C0009EFB01202870206F002801D000F080FABC
:1030D000E06E002801D000F07BFA002F0AD0208B90
:1030E00002900196201D00902300059A0699200069
:1030F00001F06EF82000FFF7C4FE0398002804D00A
:103100000C21C9430498039A904707B0F0BD000012
:1031100010000020680B0000DC7C0020D431000887
:103120007463705F6162616E646F6E3A20696E767F
:10313000616C6964207063620000000080B5012149
:10314000FFF782FF01BD000070B501000A8D4B6AD8
:1031500098184C8E234EB44200DB741ECD6A401B7F
:10316000041B01D44A8570BD581B002801DD0020D6
:1031700000E0E81A4885002070BD000010B504008A
:1031800004D100BF0DA001F091FD10BD208D4118AC
:1031900089B2154A914201DA814200DA511E218535
:1031A0002000FFF7D1FF1149884206D3608B02212E
:1031B00001436183200000F029FD10BD7463705F3E
:1031C0007265637665643A20696E76616C69642025
:1031D000706362001C000020180000202000002006
:1031E00024000020B5050000690B0000DA02000091
:1031F000F0B585B0B3484068401CB2494860487893
:10320000401C4870002721E02861684600780028AB
:103210000BD0208B0290E08A0190201D00902300AB
:10322000626A3169200000F0D3FF26692000E4685B
:10323000FFF727FE2F70049800280DD00C21C943FA
:103240003000049A90472878002805D003979D48BD
:10325000046901E00394E468002C00D116E1994868
:103260004078A17F8142F5D0A077002569460F7094
:1032700026004036207D022804D1B078062801DBE4
:1032800001258AE0B0780C2809DA200094304078D3
:10329000002832D02100943189780C2901DB0125E6
:1032A0006EE000BF88A10818401E00789421615C80
:1032B000814202DA491C9422A1549421615C81422A
:1032C0005EDB318C002905D1200000F0DEFF0028F4
:1032D00056D109E0200000F079FB002804D120003D
:1032E00000F094FC00284BD0210094310F704878F6
:1032F000072845D2401C487042E03020205E010083
:1033000004D49149884201D0401C20863020205EA0
:103310004021615E884233DB200000F017FE002868
:1033200005D0306B00282BD1F06A002828D0207DF2
:10333000022811D0B0780C2800D30C203C21615E0B
:10334000C9103E22A25E891861A2105C81407E48AD
:10335000814200DB010031802786308C3189814237
:1033600000D208004008618E49008BB2984200D21A
:1033700008007081608E30817785200000F026FE85
:10338000207D062809D1A07EC00606D54D4840689C
:10339000216A401A292800D36D1C607A000730D5B5
:1033A000207D042801D007282BD146484068216A97
:1033B000401A0190306D84494018FA214900FEF707
:1033C000CDF80199884204D26D1C0120694608702D
:1033D00017E0306D21009431C9787C4A5143401880
:1033E000FA214900FEF7BAF80199884209D2200073
:1033F00000F034FF002804D120009430C178491C2B
:10340000C170217D681C032905D12E494968226AB3
:10341000891A292906E0092906D12A494968226A18
:10342000891AF12900D305002D060DD0F06C049007
:10343000200000F0BFF9234D03980028E06800D178
:10344000E2E60399C860E0E60394E4680398007F2D
:10345000401C039908770399497FC0B2884214D36E
:1034600003990F77174D2F70039888214258002A2F
:1034700008D00146006990472978002900D0E5E688
:10348000002802D1039800F0C1FBE5E60D4C656908
:1034900004E060612800ED68FFF7F3FC002D0FD019
:1034A0006068296A401AF12807D3280000F082F9E1
:1034B000E868002FEDD0F860ECE72F00ED68EDE74D
:1034C00005B0F0BD1000002003060C183060780035
:1034D00001020304050607070707070707000000A6
:1034E00070B5674C6078401C6070256923E0A87750
:1034F000688BC10709D5022101436983280000F0C8
:1035000085FB688B5F4901406983688B010705D59E
:10351000A549014069832800FFF744FDEE68686F04
:10352000002807D000202070280000F00FF8207835
:103530000028DAD13500002D05D06078A97F8142BE
:10354000D5D1ED68F7E770BDFF7F0000F8B5040046
:1035500004D1964801F0AAFB0F2031E0656F6E7B25
:103560000020606780202758002F05D000232A0004
:1035700021002069B84705E000232A00210000202F
:1035800000F03CF80C27FF43010013D1B00619D519
:10359000208D8749884201D0401C208580202558F5
:1035A000002D0FD00023002221002069A847B84237
:1035B00008D101E0B84201D13800F2BD65670420AE
:1035C000C043F2BD0020F2BDB84C0A00F82401004F
:1035D00010B5002803E0046800F003F82000FAD1D9
:1035E00010BD10B5040008D06068002801D0FFF7B6
:1035F00018FB2100032001F0DBF910BD10B5080015
:1036000006D100BF0AA001F051FB0F20C04310BD3E
:10361000140007D02189FFF7B1FD2000FFF701FB5F
:10362000002010BD002BFBD1FFF7ECFC10BD00000B
:103630007463705F726563765F6E756C6C3A206957
:103640006E76616C696420706362000070B5010081
:10365000002300200A4A14690AE0257D8D4206D124
:103660005568266AAD1B9D4201D32B002000E468FB
:10367000002CF2D1002802D00021FFF7E5FC70BD3C
:1036800010000020FCFF0000F1B5012001F07CF9E2
:103690000600914C5ED12069002809E0C568418B85
:1036A0000A0704D5404A0A404283FFF77BFC280002
:1036B000F4D1002500210020626907E06368166AE2
:1036C0009B1B8B4201D319001000D268002AF5D150
:1036D000002801D0FFF732FD012001F055F9060066
:1036E00038D10920FFF7B2FF012001F04DF90600A3
:1036F00030D10820FFF7AAFF012001F045F90600AC
:1037000028D168460078802801DB7F2203E06846E4
:10371000027810001AD0521ED2B2002123690EE0A6
:10372000587D904205DB09D166681F6AF61BAE42E0
:1037300004D361681A6A8D1A19000200DB68002B35
:10374000EED1002902D00800FFF7F8FC012001F0BB
:103750001BF90600002E24D09821300001F036FB22
:10376000684600787075300048305C4981834A08AB
:1037700072853285FF22F2728622920072860622BC
:103780004023F252F2870022D24332860122028085
:10379000626832626278B2774180514981635149EF
:1037A00081643000F2BD0000F7FF0000B8A70008F8
:1037B000680B000070B5040004D100BF4AA001F0FE
:1037C00075FA70BD207D002818D00A2816D001286F
:1037D00014D025006835E8680026002802D0FFF7DD
:1037E00020FAEE600020C04320866868FFF7F0FEF4
:1037F000A868FFF7EDFE6E60AE602E8070BD38B534
:103800000C000168A14203D1C968016007E0010012
:10381000002904D0C868A042F9D1E068C86000253A
:10382000E5602000FFF7C6FF207D0A280AD00128A6
:1038300008D0608BC10705D50221014361832000B8
:1038400000F0E4F92575E58231BD234988694A68AD
:1038500080188861704700290BD0098D002908D095
:10386000282901DD283900E0002189B2884200D9E9
:103870000800704738B50400080002E0FFF75EFC5E
:103880002800002805D0C568016822689142F5D05B
:10389000F6E731BD70B504001CD02068002819D0AF
:1038A0000E000D4D29692000FFF7E4FFA9682000F4
:1038B000FFF7E0FF002E0DD0306800280AD0E8683E
:1038C00006E001682268914201D131680160C06858
:1038D0000028F6D170BD000010000020D0160000B6
:1038E000FD35000800DD6D007463705F7063625F1A
:1038F00070757267653A20696E76616C69642070D4
:103900006362000080B5002805D0007A002802D04C
:1039100001F096FB02BD100000F0D8FD02BDF7B526
:1039200007001D00089EF007400F0090032001F0E3
:103930002BF8040003D10198FFF773F913E0267305
:10394000002020600199616001990989009A891A13
:103950002181608114210198FFF720F9002804D00B
:103960002000FFF73EFE0020FEBD2E006846057ACF
:10397000606840682061F88AFEF7ECFF21690870F2
:10398000000A4870388BFEF7E5FF21698870000A4D
:10399000C8703000FEF7E3FF2169091DFFF75CFAEC
:1039A00000984010800F009940188010401D0003BF
:1039B000284380B2FEF7CEFF21690873000A4873DE
:1039C000206900218174C1742000FEBDF8B586B065
:1039D00005000026EF6E002F1FD068468180002969
:1039E00001D10520A0E0388969468988814200D349
:1039F00094E0397B05918C0004210C40694689884C
:103A0000401A80B20290A02292000298011989B255
:103A10003620FEF7C1FF0490002800D183E07868CB
:103A200001893A89891A6A4692888B189BB2029951
:103A30008AB2049949680919FFF7A0F902998842E6
:103A40006ED13969087B4A7B1206120C1043FEF7CF
:103A500081FF8406A40E039608202100014202D0B3
:103A6000F7240C400390E00705D501208443039818
:103A70000121014303913869001DFFF7E1F9FEF7C9
:103A80006EFF0599C9B20091694689884318039869
:103A9000C2B204992800FFF742FF009000283FD0EF
:103AA0007868FFF7E8F86621695A081A66216852B3
:103AB00078680189029A891A89B2FFF719F838895A
:103AC0000299401A38812000FEF744FF39690A7BC9
:103AD0004B7B1B061B0C1A4310430873000A4873E8
:103AE0007E817868FFF7C7F86621695A0818662151
:103AF000685200984068FFF7BEF86621695A0818B6
:103B0000662168523868009908600098386000980B
:103B10000068002802D1280066304680002004E0BA
:103B20000498FFF77EF80020C04307B0F0BD38B519
:103B30000400E56E002D21D000E005002868002873
:103B4000FBD12969087B4A7B1206120C1043FEF751
:103B500001FF400712D10120FEF7FCFE29690A7B14
:103B60004B7B1B061B0C1A4310430873000A487357
:103B7000608B202101436183002032BD01212000A0
:103B800000F001F832BDF8B504000D000026002752
:103B9000A80700D50127A0229200B9003620FEF721
:103BA000FBFE002808D00097E36D2A0001002000EA
:103BB000FFF7B5FE002806D1608B802101436183A9
:103BC0000020C043F2BDE16E002902D1E06604E0AE
:103BD00011000A68002AFBD10860270066377E8042
:103BE000A90702D0E16D491CE165E90703D5618BA6
:103BF00020220A4362834068FFF73DF86621615A3C
:103C0000081838800020F2BD00000000F8B586B02A
:103C10000700CA480068B84200D18BE1380048303C
:103C2000008B4821795A884201D2059000E0059125
:103C300038004830456A0224002D36D03A1D39003C
:103C40003800FFF75FFE0490002807D0002F02D055
:103C50003868002807D10498001D02D10320C04312
:103C600069E1006838602869001DFFF7E9F8FEF790
:103C700076FE39009431059A7B6CC01A2B89C018E6
:103C800082421AD210463A004832128B90420CD12E
:103C900038004830806A002807D14878002804D1CD
:103CA00008700120487000208870788B204200D175
:103CB0003CE1380000F0ACFA3DE1002048703800EB
:103CC0004830806A0390002805D000E003900398F4
:103CD00000680028FAD12869001DFFF7B1F8FEF747
:103CE0003EFE05997A6C801A2A898018814200D29A
:103CF00016E138004830806A002819D0788B4421BA
:103D0000084215D1390048314A6A002A06D01368A2
:103D1000002B0DD112897B8E9A4209D28A8B002A00
:103D200006D0C98B082903DAA021014000D1F7E0B1
:103D3000387D02280CD01020FEF70CFE29690A7B82
:103D40004B7B1B061B0C1A4310430873000A487375
:103D50006868807B01285ED1786AFEF700FE2969D9
:103D60000831FFF779F8788DFEF7F4FD296988733B
:103D7000000AC873786A798D4018F8622C69143487
:103D8000287BC0070BD53A1D04996D48FFF763FDEA
:103D90000100812080040843FEF7E1FD206030200F
:103DA000385E002801D500203886786B002809D1BC
:103DB0006448006878632869001DFFF741F8FEF742
:103DC000CEFDB863686829694368CA1A92B243890C
:103DD0009B1A438103899A1A02814160002008746A
:103DE00048746868391D00913B0002890621FEF77E
:103DF00076FD29690874000A487404980290062028
:103E00000190B87A0090FB7A3A1D3900686800F09A
:103E10008FFC010046D100206881286839004831B4
:103E20004862387D022803D0788B47490140798366
:103E30002869001DFFF704F8FEF791FD06002969C7
:103E4000087B4A7B1206120C10430324FEF782FD06
:103E50002040010000D00121288930184018390085
:103E600048318968091A02D53900483188602969C2
:103E7000087B4A7B1206120C1043FEF76BFD0440D0
:103E8000200000D001202989081840D00020286097
:103E900038004830806A002809D1380048308562EF
:103EA000039537E0798B80220A437A8343E02869BF
:103EB000001DFEF7C5FFFEF752FD040003980069E0
:103EC000001DFEF7BDFFFEF74AFD201A19D53C0084
:103ED000703400E02468206800280ED00069001DBE
:103EE000FEF7AEFFFEF73BFD06002869001DFEF75A
:103EF000A7FFFEF734FD301AECD420682860256057
:103F000008E00398056003980068039002E0280029
:103F1000FFF767FB38004830456A002D00D0DAE62D
:103F200038004830416A002900D10184788BCA49A1
:103F300001407983002007B0F0BD00BFDC7C002089
:103F4000B405000014000020FCFF0000F8B50500D7
:103F500068308468002C36D004E06268927B012AC5
:103F600031D10C0021680029F7D16168897B0129D2
:103F700029D1416821604168002901D1618901800E
:103F80008168416000278760688B802109010143B7
:103F900069832069001DFEF753FFFEF7E0FC060071
:103FA0002169087B4A7B1206120C1043FEF7D2FCF3
:103FB0008007800F00D00120218971180818E8645B
:103FC0006F630020F2BD0520C043F2BD80B54221E1
:103FD000415CFF2902D0491C42228154FFF716FEA2
:103FE00001BD10B50400FFF7B1FF002802D1200089
:103FF000FFF7ECFF10BDF8B507003D6F002D03D0B3
:104000006868807B012802D00520C043F2BD286883
:1040100038673C006C3400E02468206800280ED02B
:104020000069001DFEF70CFFFEF799FC06002869E9
:10403000001DFEF705FFFEF792FC301AECD4206855
:104040002860256000202968002901D16822B85223
:104050004221795CFF2902D0491C4222B95478637D
:10406000F2BD70B5040025004835A86A002821D0AB
:104070000426608B30421DD12000FFF7BCFF0028D2
:1040800018D1288B4821615A814200D20800C10F03
:1040900008184110608E8AB243009A4200D2410053
:1040A0008AB2181810182880608B064366836980CE
:1040B0000020208670BDFEB505000E0010001C001B
:1040C000A02292003118143189B22220FEF764FC3C
:1040D0000090002833D0099F0898019400994C68FB
:1040E000FEF738FC2070000A60703800FEF732FCE2
:1040F000A070000AE070211D0198FEF7ADFE2800B7
:10410000FEF72DFC21000831FEF7A6FE3006800EDA
:10411000401D00030AA90978084380B2FEF71AFC83
:104120002073000A60736846808DFEF713FCA0734D
:10413000000AE073002020746074A074E07400989A
:10414000FEBD1FB50400608D039010200290208BEF
:104150000190E08A0090606AFFF7ADFF002803D06D
:10416000616A628D8918E16204B010BDF4B584B053
:1041700004000E001F003A000499FFF7C3FB0390F0
:10418000002802D10324E4431CE075680097049BD7
:10419000328906213000FEF7A2FB2874000A6874F9
:1041A000002C02D0E37AA07A01E0FF2300200399DB
:1041B00002910621019100903A000499300000F02C
:1041C000B7FA04003000FEF72CFD200005B0F0BD6A
:1041D0007FB50500080016001C00FEF7C0FB59491A
:1041E0000391142102916946098D01916946898CD8
:1041F00000910300002200213000FFF75CFF00283F
:1042000005D0089B220001002800FFF7AFFF7FBD0B
:1042100038B50400206DFEF7A2FB03000022002148
:104220002000FFF78EFF01000325002905D1608BD8
:10423000054365830120C04332BD231D22002000B9
:10424000FFF794FF618B020001D00D4301E03E4D6A
:104250000D40658332BD00007FFF000010B50400F3
:10426000206D401EFEF77BFB030000220021200092
:10427000FFF767FF010002D10020C04310BD231DDE
:1042800022002000FFF772FF10BDF8B50500EF6EA9
:10429000002F01D10020F2BD96300178FF2901D016
:1042A000491C01703969087B4A7B1206120C1043C5
:1042B000FEF750FBC00704D53889441EA441E40F23
:1042C00000E000243869001DFEF7BAFD030001225A
:1042D000624000212800FFF734FF0090002802D13F
:1042E0000020C043F2BD4668002C0ED01120FEF71E
:1042F00031FB317B727B1206120C1143134A0A40C8
:1043000010433073000A707309E0786801893A89B4
:104310008B1A9BB2012231001431FEF72FFD386950
:10432000001DFEF78DFDFEF71AFB401C296D091AD2
:1043300000D528652B1D2A0000992800FFF716FFDD
:10434000F2BD00000B680000FCFF0000FFC0000091
:1043500080B5FEF79CFD4F480068002803D14E4809
:104360000068002805D000224C49FA2000F069F8C6
:1043700001BD4B49086001BD49480168002900D0D2
:10438000704780B543490968002903D1424909684B
:10439000002906D00121016000224049FA2000F0E6
:1043A00050F801BD70B504000D001600072000F0A4
:1043B000EBFA00281CD0002101608560C6604460D3
:1043C000384B1A68002A06D0802109065568641BFC
:1043D0008C4203D30260186070BD1A001368002B72
:1043E00004D044685D68641B8C42F6D3036010609F
:1043F00070BD70B504006068804700F0F1FE25686C
:10440000284949684B1928491A1A80263606B242AB
:1044100002D32200401901E022001800FFF7C2FF7A
:1044200070BD000038B501241F4D00BF1FA0E10082
:1044300042182900106800F004F8641C042CF4D31E
:1044400031BD70B504000D00160000F0C9FE320049
:1044500029000019FFF7A6FF70BDF8B500F0C0FEF7
:10446000104C060011E04868321A80231B069A425D
:104470000ED20A6822608D68CF686060072000F065
:1044800097FA280001D03800A84721680029EAD10E
:10449000F1BD00002000002024000020514300084E
:1044A000487D0020147D0020F3430008FA0000003E
:1044B0008F2E0008E8030000E5540008E803000020
:1044C0008760000864000000A953000870B5016807
:1044D000F0200840E02803D19048006800282BD144
:1044E0008F480068052200E00068002814D03123BE
:1044F000C35C05241C40052CF6D14468002CF3D085
:1045000085682E000E402540AE4215D09B07EBD4A7
:10451000C3689942E8D170BD8248006800280AD07B
:104520003123C35C1A40052A05D14268002A02D013
:10453000C9B27F2900D1002070BD80B501003120B3
:10454000085CC0070CD54A68002A09D07648406943
:10455000904203D0FEF73EF9002801D0012002BDB1
:10456000002002BDFEB507000D00786800900078BD
:10457000010904296DD180003C210140019100997D
:104580008878CA781206120C1043FEF7E3F904008B
:104590003989884203D221003800FEF7A9FA7889C8
:1045A0000199884255DB3889A04252D3142950DB47
:1045B00089B20098FEF7A1F900284AD1009810307E
:1045C000FEF73EFC584C606100980C30FEF738FC5A
:1045D0002061207DF0210140E02915D13120285CA7
:1045E000800601D4002627E021001431280000F0C5
:1045F0004BFE0028F6D060694C49884209D12069F9
:10460000002806D12E0022E02800FFF796FF0028A0
:1046100001D02E0010E00026207D7F280CD04048DD
:10462000066800E03668002E06D0AE42FAD03000B0
:10463000FFF783FF0028F5D029002069FEF7CAF8AC
:10464000002806D1207CF0210140E02901D0002E75
:1046500003D13800FEF7E5FA0DE000998879CA79B0
:104660001206120C1043B049014008D0380000F087
:10467000E1FF070001D10020FEBD786800902660B0
:1046800065600098A0600098007880003C2101409F
:10469000A18101993800FEF787FA0098407A012835
:1046A0000FD0022812D0062806D0112815D12900D3
:1046B000380001F0DEFA27E029003800FDF726F97E
:1046C00022E02900380001F0C3FB1DE02200143273
:1046D0002900380000F003FE16E031006069FEF7A3
:1046E00079F800280DD1207DF0210140E02908D083
:1046F000019909B23800FEF78FFA0221380001F063
:104700005DFC3800FEF78DFA002020606060A0603C
:10471000A08120616061FEBD000000001C7D0020C2
:10472000FC7C0020007D0020E07C0020E0000001F7
:1047300018B585B00024049403940A9C029409AC33
:104740002478019408AC2478009400F002F806B0B4
:1047500010BD30B585B00A9D0C00002A05D0002997
:1047600002D00968002900D12C1D6946098E0491E8
:104770000B990391029509A90978019108A9097873
:104780000091210000F002F805B030BDFEB584B004
:104790000500002700970598002800D1A2E0109C92
:1047A000052620002ED0282C01DD05209EE0E01CEF
:1047B0005E4901400291029814300390029928004A
:1047C000FEF7ECF9002822D122000F996868FCF767
:1047D0000DFD0298844204DA011B6868001900F09C
:1047E000F5FA0098029904E06A687B00D25A8018B2
:1047F0007F1CCA0F521852109742F5DB00900398A5
:104800000604B60C14212800FEF7C8F900286CD164
:104810000D990C9F6846007E6C6820726172009A48
:1048200009020143501800902100103105980068DA
:10483000FEF712FB20001030FEF702FB009980B259
:104840000818009020001030FEF7FAFA0099000CCA
:1048500008184021314321706770390222781143D2
:1048600046182889FEF776F8A070000AE070A07854
:10487000E1780906090C084337180020A071E0719F
:104880002B4E3088FEF766F82071000A607120799F
:1048900061790906090C08433F183088401C3080B4
:1048A0000498002803D121000C31224801E02100A6
:1048B0000C310068FEF7D0FA20000C30FEF7C0FA89
:1048C00080B23E1820000C30FEF7BAFA000C301807
:1048D000010C80B20818010C0818C143A172090A22
:1048E000E1720CE06889142802DA0120C04317E065
:1048F00068681030FEF7A4FA019001A805900E98A0
:10490000018D002908D02A89914205D2059A01001B
:10491000280001F0ABF803E0059A290043699847A5
:1049200007B0F0BD000000003FFF0000FCFF0000EA
:10493000507D002048AA000810B5C16800230B6014
:104940008268D21C0324A24305E00C6814600A604C
:10495000848812195B1CC488A342F6DB10BD38B5ED
:1049600000251B4C2804800B2058FFF7E5FF6D1C29
:10497000A8B20A28F6D331BDC1680868002801D062
:1049800002680A607047000080B50A2805DB00BF96
:1049900010A000F08BF9002002BD0D4980000858DE
:1049A000FFF7EAFF02BDC06802680A600160704755
:1049B00080B50A2804DB00BF0EA000F077F901BD26
:1049C000002904D0024A80001058FFF7ECFF01BD17
:1049D00090A700086D656D705F6D616C6C6F633AD8
:1049E0002074797065203C204D454D505F4D4158F5
:1049F000000000006D656D705F667265653A207439
:104A0000797065203C204D454D505F4D4158000068
:104A100010B5A34801000F3103229143A022920157
:104A20000A8000234B800B718B1801241C711A80A3
:104A30005A8081604360016010BDFEB5030060D004
:104A400080075ED118000838019095490A689042A5
:104A500057D34C680C339C4253D30379002B50D06E
:104A60006C4662806488031B6C4623806B461B88FF
:104A7000048815194688971902978A4FBC4240D27C
:104A80004488BC423DD29E4203D0029C24889C4272
:104A900037D14C68A54202D06D889D4231D18B68D8
:104AA00000250571019D9D4200D20300058856191D
:104AB0007D1EB04210D03779002F0DD1A6420BD009
:104AC000B34200D10300348804803488AC4203D060
:104AD0006E463688971C3E534488141984420FD082
:104AE0002679002E0CD1834200D12300068826802F
:104AF0000088A84204D06D466D88641B921C145235
:104B00008B60F7BDF0B585B0CA1C674E16400C2E01
:104B100001D20C2602E0634A964217D28E4215DB80
:104B200004905F480168049A8A4255D343689A42C8
:104B300052D2083A0192521A92B20092019A128805
:104B4000009BD71A083FBFB2B74201DA002044E009
:104B5000BE4241D08A18039282680023A024A40197
:104B6000039D2D79002D1CD1039D2D88009FBE191A
:104B70000836B6B28F190297039FBA4201D1029A42
:104B80008260081D83550298058000988A1C905306
:104B9000019A168002980088A0421DD0891C0E52EE
:104BA0001AE035001435AF4216D3009DAD19083513
:104BB000AEB28F19974200D28760081D83550198C5
:104BC0000088388000988A1C9053019A1580388894
:104BD000A04201D0891C0D52049805B0F0BDFCB56F
:104BE00001005AD0C11C304E0E400C2E01D20C26B2
:104BF00003E0A02189018E424FD886424DDB284A2E
:104C000013689068C51AADB200E00500A0208001CD
:104C1000801B854241D25C192088191D495D0029FD
:104C2000F3D1411B0839B142EFD3280001253700E9
:104C30001437B9421FD3811908316E463180694655
:104C4000098800261F1D7E545E1801962688019F44
:104C50003E809E1C7052694609882180191D0D54A2
:104C600001980088A0218901884206D069460988F8
:104C70009D1C295201E0191D0D549068844209D1F0
:104C800001E0008818180179002902D05168884293
:104C9000F7D1906020000830F6BD0020F6BD00007E
:104CA0000432002001280000FCFF00000EB4C0B553
:104CB000020003A801900020009001AB01210448EC
:104CC00078440C30FBF7FAF9029906B0084700BFA8
:104CD000255C0000F8B53748009004683648416804
:104CE0000078002851D135484143354808183549E6
:104CF000FCF734FC31484143314808183149FCF78E
:104D00002DFC2E4841432E4808182E49FCF726FC5E
:104D10002A4841432A4808182A49FCF71FFC27481B
:104D20004143274808182749FCF718FC234841430A
:104D3000234808182349FCF711FC20484143204828
:104D400008182049FCF70AFC1C4841431C48081875
:104D50001C49FCF703FC1C4F1026194C194D174831
:104D6000414308192900FCF7F9FB39601348414316
:104D700008192900FCF7F2FB79600837761EEED19E
:104D80001148C46F01200C4A10700C4841430C4874
:104D900008180C49FCF7E2FBE0060B4A400E10181D
:104DA000026801600098026003484160900080083A
:104DB000F2BD0000147C00204C0100200D6619009B
:104DC0005FF36E3CFFFFFF7F947B0020002200BF5B
:104DD000094202D0491E4254FCD17047704700007E
:104DE000FEB5050002D100BF2DA003E0099F3800E9
:104DF00003D16948FFF75AFF2AE00191674800296B
:104E000000D101900092002A00D10090002B00D127
:104E100003000A98089900246C60AC60EC60604A5A
:104E20006A612C853126AC552A0024321460EC616D
:104E3000AC6329625B4E31783422A9542861009A10
:104E40000199280000F078F82800B847002804D01D
:104E50000020FEBD401C342168543420285CFF280B
:104E600001D134216C5471680A003420285C04E0BC
:104E70003423D35C8342EDD01268002AF8D1FE2897
:104E800001D1002000E0401C3070296075603120A5
:104E9000285C800602D5280000F0CEF92800FEBD6F
:104EA0006E657469665F6164643A20696E76616CF0
:104EB0006964206E657469660000000038B50500FD
:104EC0000C00FEF7E7FC2100280000F0A5FF31BD33
:104ED00038B505000C00100021686A68914211D0B5
:104EE0000091696801606946FFF7E8FF002C01D175
:104EF000002000E0206868600121280000F068F8C8
:104F0000012032BD002032BD0A6883689A4205D074
:104F1000002900D1002282600120704700207047E4
:104F20000A68C3689A4205D0002900D10022C260F5
:104F30000120704700207047FEB50D00174900D1D1
:104F40000D000092002A00D100911E0000D10E0039
:104F50000700002D02D02868002806D1012401AAEC
:104F600029003800FFF7B4FF00E000240022009978
:104F70003800FFF7C9FF002231003800FFF7D0FFEB
:104F8000002C04D101AA29003800FFF7A1FFF7BDCA
:104F9000044988607047000008A8000848AA000873
:104FA0003B500008F87C002080B5002804D100BFE9
:104FB0002DA0FFF77BFE01BD3121415CCA0706D45D
:104FC00001220A4331214254032100F001F801BDBE
:104FD00010B504003120205C05220240052A11D1C1
:104FE000C9070FD5616800290CD0000703D5211D22
:104FF000200001F028FB3120205C800602D5200033
:1050000000F033F910BD000080B5002804D100BFC6
:105010001CA0FFF74BFE01BD3121415CCA0707D53B
:10502000FE220A4031214254110701D501F0E0F877
:1050300001BD002800D0C16170470B20C0437047FC
:1050400001000CD00748406800E00068002806D046
:105050003423C35C5B1CDBB29942F6D1704700205D
:1050600070470000F87C00206E657469665F7365A8
:10507000745F75703A20696E76616C6964206E6544
:10508000746966006E657469665F7365745F646FEA
:10509000776E3A20696E76616C6964206E6574691A
:1050A00066000000F8B54648464A1268FB23DB005C
:1050B000D618326A0725ED43002A02D0401EFDD1E2
:1050C0001FE034682C340020B0600F000AE07A89B9
:1050D00079682000FCF78AF878892418B1680818E4
:1050E000B0603F68002FF2D1B2682C32B260364C0B
:1050F0003168200001F04CFE200001F075FE002810
:1051000000D02800F2BDF8B504002F4FAF2080007A
:1051100038582E494618B06AB168002928D00128AD
:1051200026D1C122520089B20020FDF735FC0500CE
:105130001ED0B26892B231686868FCF757F8B06860
:1051400068812100280022699047002802D02800A9
:10515000FDF767FD0020B060B0621D49380001F026
:105160002AFEF36A9BB232680121380002F002F88D
:10517000F1BD7321322281547421332281541549A7
:1051800041611549816106213022815400212A2282
:10519000815402222B23C2542C23C25403222D23D8
:1051A000C2542E2281542F2281540C490185312171
:1051B000415C0A220A43312142540020704700001A
:1051C00040420F0080720020C46F0020D40700000E
:1051D000285A0020B3630008A5500008DC05000031
:1051E00080B502F00FF802BD10B504003120205C3C
:1051F000400701D504A000E008A0FFF757FD2000FC
:1052000002F006F810BD00007570646174652073CB
:105210007563636565646564210000007570646191
:105220007465206661696C65640000005B485C49D8
:1052300001605C494160704738B50400574D290052
:1052400000F02CF800280DD002214172017B491C8E
:105250000173A36B002B03D0012229002000984783
:10526000002032BD0020C04332BD406A002800D17A
:10527000704710B5046804E00521200000F0CBF869
:105280002468002CF8D110BD406A0B6800E000686B
:10529000002802D042689A42F9D1704770B50500E3
:1052A0000C006E6AFFF7F0FF002817D10620FFF709
:1052B0006BFB002812D00021002C01D1002200E05D
:1052C000226842604181417201720173002E02D155
:1052D0000160686270BD31680160306070BDF1B519
:1052E00082B00E0015004189082952DB4468200075
:1052F000FDF703FB00284CD1009529463000FFF74D
:10530000C3FF050045D02078112802D0162838D0D8
:105310003FE0224F009800683968884216D1201D6E
:1053200003D0FDF78DFD002812D16078002801D14F
:105330000A206070706A00282BD00568002D28D0E4
:105340006178280000F067F82D68F7E7201D20D06D
:10535000201DFDF775FD00281BD0009800683968F6
:10536000884209D1201DFDF76BFD00906946300091
:10537000FFF78AFF05000CD06178280000F04BF899
:1053800007E0687A012804D100206881022169724F
:1053900028720298FDF745FCF7BD0000047D00204F
:1053A000E0000001E000000270B511480568494EB8
:1053B00018E06089002811D0401E608100040DD1E2
:1053C000607A01280AD160683168884206D00220DC
:1053D000607216222100280000F02FF82468002CAB
:1053E000E7D12D68002D01D06C6AF8E770BD000090
:1053F000FC7C002070B505000E00032E05DBFFF7D6
:1054000069FC3100FCF7AAF800E00121080400D192
:105410000121698161BD10B50400607A022806D0BF
:10542000012809D16089002801D0814204D22000DE
:10543000FFF7E0FF0120607210BDF0B589B00500F4
:105440000E001700244800680790A022920008214F
:105450003620FDF7A1FA0590002839D00895059867
:105460004468686807903500162F07D12E1D211D4E
:105470006868FDF7F1FC0120287206E0172F24D19F
:10548000164E211D6868FDF7E7FC277000250020F7
:105490006070A070E07008212000FDF72EFAA07067
:1054A000000AE07006A80E4901804580042004909F
:1054B00006A803900898029002200190009501230D
:1054C000320007A90598FFF744F90598FDF7A9FBF5
:1054D00009B0F0BD047D002048AA0008087D002026
:1054E0009404000038B500245148456803E0401E8C
:1054F000E8772C000D00002D09D0E87F29680028EE
:10550000F5D128000D00210000F002F8F3E731BDCD
:10551000F1B50F00002544686068017942791206F0
:10552000120C114314D1FDF78BFC00994860142232
:10553000009908316068FBF759FE0121200000F056
:1055400043FD2000FDF797FB05002000FDF769FBF8
:10555000009846682C000BE035007068FDF770FC81
:1055600006002800FDF787FB24182800FDF759FBEB
:10557000002EF1D13900009800F04BF82C4801883A
:10558000091B0180A0B2F2BDF3B583B00400002076
:10559000019000260096002525494F6802940024BA
:1055A000002F24E002980C30FDF74AFC7969814213
:1055B0000FD102981030FDF743FCB969814208D140
:1055C000029908794A791206120C1043B98981426E
:1055D00008D06D1C002E03D0F07FF97F884201D3E4
:1055E0003E0000943868002800D03C000700D9D164
:1055F000029C3000009904D0019EFFF789FF30180B
:10560000019001980499884201DA012DC1DC05B0AE
:10561000F0BD10B50268064B5C68844201D15A6047
:1056200000E00A6001000420FFF7C2F910BD00008D
:105630000C7D0020F1B586B044683C2520788000C0
:10564000284014286CD1A079E1790906090C084397
:10565000FDF780F9C700A078E1780906090C084336
:10566000FDF778F9217889002940884258DB401AF3
:1056700002900698FDF7FFFA0190604800880199B2
:1056800040180A280ADD2000FFF77EFF002847D0D7
:105690005A480088019940180A2841DC5748466852
:1056A00016E020000C30FDF7CBFB716981420ED172
:1056B00020001030FDF7C4FBB169814207D1207989
:1056C00061790906090C0843B189814229D03668FD
:1056D000002EE6D10420FFF757F906000DD10199FD
:1056E0002000FFF751FF0199884204DB0420FFF7F7
:1056F0004BF9060001D100260FE020213000FFF712
:1057000065FB0F20F0773D48416831604660142208
:10571000210030000830FBF769FD0096002E17D1FC
:1057200087E10096A079E1790906090C0843C44E87
:10573000FDF710F930420BD10098C089FDF70AF946
:10574000304205D01422210000980830FBF74EFDAE
:10575000A079E1790906090C08430006400FC1074A
:10576000C90F012048400390029838186946088103
:105770000398002808D068460089BFB2B84215DBFC
:10578000B049884200DB4CE10020059001200490E4
:1057900006984668B078F1780906090C0843FDF7C9
:1057A000D9F80400307880000540AC4200DA38E1D6
:1057B000B079F1790906090C0843FDF7CBF8C70069
:1057C0000698466831000020FDF746FB380030712E
:1057D000000A70713819401BB071000AF071B0797D
:1057E000F1790906090C0843BFB2B84272D3009898
:1057F0004068059F049C35002EE000BF0C7D002012
:10580000287969790906090C0843317972791206F9
:10581000120C1143884200D103E128796979090605
:10582000090C0843B179F2791206120C114388422F
:1058300050D3002F0CD0B879F9790906090C084328
:10584000317972791206120C1143884200D000247B
:105850003000FDF7F5FA3700002841D04668297975
:105860006A791206120C1143327973791B061B0CEC
:105870001A439142C4D22900FDF7EEFA002F1ED040
:10588000287969790906090C0843B979FA79120669
:10589000120C114388421DD3307971790906090C25
:1058A0000843A979EA791206120C1143884211D3F0
:1058B00039000698FDF7D0FAB879F97918E030790F
:1058C00071790906090C0843A979EA791206120CC4
:1058D0001143884200D2A4E006980099486012E083
:1058E0003E00F9D031000698FDF7B6FAB079F179AB
:1058F0000906090C084329796A791206120C11432A
:10590000884200D000240398002805D10098807FA9
:10591000C00701D4002425E0002C1FD00098406867
:1059200000281AD0416808794A791206120C1043EF
:1059300013D1280000E00500FDF782FA00280DD001
:105940004068A979EA791206120C11430279437969
:105950001B061B0C1A439142EDD000240020C043CB
:1059600084425ED0B44E308801994018308003984C
:10597000002809D068460089009988830098807FB4
:105980000121014300988177012C55D10098878B24
:10599000143744686068FDF753FA05006468142200
:1059A000009908312000FBF721FCB8B2FCF7D2FFC8
:1059B000A070000AE0700020A071E071A072E07297
:1059C00014212000FCF799FFA072000AE0720098F1
:1059D0004468002D0CE06F6814212800FDF7E4F8FE
:1059E00029002000FDF756F93800FDF729FA0500D7
:1059F000F1D171680098884202D1002106E01100BF
:105A0000002902D00A688242F9D100900098FFF77D
:105A100000FE2000FDF72FF93188081A30802000A1
:105A20000BE000984068002803D100210098FFF7A0
:105A3000F0FD0698FDF7F5F8002007B0F0BD000076
:105A4000FF1F0000ECFF000080B501000520FEF7FD
:105A5000AFFF01BD10B504006069002801D0FDF75B
:105A6000E0F82000FFF7F0FF10BD0000F2B58CB0A9
:105A7000050014000020694608800C98008D143839
:105A80008110490F0818C010099014206946088138
:105A9000686808900526F643007880003C210140A4
:105AA000142906D16889142805DA00BF64A0FFF71D
:105AB000FDF83000B8E008998879CA791206120C0E
:105AC0001043FCF747FFC104C90C07910A902889CD
:105AD000143880B203900998C000694688820B94FC
