:020000040800F2
:1000000058D2002015470108C5380108C938010831
:1000100000000000000000000000000000000000E0
:10002000000000000000000000000000CD380108C2
:100030000000000000000000CF380108D13801089E
:10004000B72C0008B3750008FB760008EB8E00089B
:10005000438F0008AB900008CF9400085B95000820
:10006000D938010843A1000847A100080FA30008E0
:10007000371D01087F1E01080B3D0108173D0108CF
:1000800033440108014801080348010805480108F4
:1000900007480108094801080B4801080D480108F4
:1000A0000F480108114801081348010815480108C4
:1000B00017480108194801081B480108F3B587B023
:1000C0000798002805D1CC4B8322CC49CC4801F0BD
:1000D000EFFFCC4D280092300188491C0180CA4EA8
:1000E00007984068306007984089142805DA28008E
:1000F0009A300188491C0180DCE3CC480168CB4878
:10010000406901F0E9FF002805D1C848007DF021D1
:100110000140E02905D12800A0300188491C018058
:10012000C8E3C3480690C348059005980090069B15
:10013000079802890621079802F0C7F8010089B2E2
:10014000002905D0290098310A88521C0A80B1E3A1
:100150003168087B4A7B1206120C104380B202F011
:10016000D0F880B2000B8000694648736846407B37
:10017000142806DB079800896946497B89B28842C2
:1001800005D228009A300188491C018092E3AA4CCC
:100190006846407B143820800020A84908600798F2
:1001A00040896946497B89B2884208D32088A4499E
:1001B00008806846417B079802F0C9FA4CE007982E
:1001C0000068002805D18C4BC2229E498C4801F062
:1001D0006FFF1421079802F0BAFA994807994989E4
:1001E0000180218802888C1A0188079802F0AFFAF2
:1001F000079800684089210089B2884205D228000A
:100200009A300188491C018054E3079800684068CF
:100210008A490860210089B20798006802F097FABD
:1002200007980089001B07990881079840890028D2
:1002300005D0714BDF22BD49714801F039FF0798A5
:100240000089079909680989884205D06A4BE0222C
:10025000B7496B4801F02CFF316808784A781206DC
:10026000120C104380B202F04CF831680870000A9A
:10027000487031688878CA781206120C104380B230
:1002800002F03FF831688870000AC8703068001DBD
:1002900002F006FD02F03BF804003068011D20006A
:1002A00002F00AFDA34804603068083002F0F8FC50
:1002B00002F02DF80400306801000831200002F03F
:1002C000FBFC9D4804603168887BCA7B1206120CD7
:1002D000104380B202F015F831688873000AC873C1
:1002E0003168087B4A7B1206120C104380B202F080
:1002F00008F88006800EBF49087007980089BE493B
:100300000880BC4800788007800F002810D0BA48C9
:100310000088401CB8490880B748008807990989B7
:10032000884205D228009A300188491C0180C1E228
:1003300000200490C4480468002C00D187E0207D90
:10034000002805D12C4BFB22C0492D4801F0B0FEFE
:10035000207D0A2805D1284BFC22BD49284801F000
:10036000A7FE207D012805D1234BFD22B949244851
:1003700001F09EFE207A00280AD0207A2B49496895
:100380003022895C491CC9B2884201D004945CE0E7
:10039000316808784A781206120C1043218B80B21B
:1003A000814251D131688878CA781206120C104304
:1003B000E18A80B2814247D11C486168026991425A
:1003C00042D12168406981423ED1E068A04206D115
:1003D000094BFF220E32A049094801F069FE04983A
:1003E000002813D0E0680499C86097480068E0606E
:1003F000954804600FE000BF20230108CC420108AB
:10040000703201087CC9002000CE00202800A630F0
:100410000188491C0180E068A04206D1BD4BFF2243
:100420001632BD49BD4801F043FE10E0F8CC002073
:1004300008CD00200CCD002044CE002004CE0020AA
:1004400046CE0020644601080494E46874E7002C5A
:1004500000D08EE0B24800680400002C3BD0207D24
:100460000A2806D0AB4BFF222032AE49AB4801F040
:100470001FFE207A002808D0207AAB494968302234
:10048000895C491CC9B2884223D1316808784A780E
:100490001206120C1043218B80B2814219D13168AF
:1004A0008878CA781206120C1043E18A80B2814221
:1004B0000FD19D486168026991420AD12168406963
:1004C000814206D1200000F0E7FA079802F07EF999
:1004D000F8E1E468C1E700200490944801680F0047
:1004E000002F2ED0397A00290AD0397A8E4A5268E4
:1004F0003023D25C521CD2B2914201D004971EE04C
:1005000032689178D3781B061B0C1943FA8A89B29A
:100510008A4213D13968844A5269914211D0002F1E
:1005200002D03968002909D10BE000BF90470108CB
:10053000A03A010808CE00200CCE00200497FF68E6
:10054000CEE7002F15D00499002906D0F968049A47
:10055000D1600168F960076004E02800A6300188D6
:10056000491C0180380000F0E1F9079802F02EF9EB
:10057000A8E1002C00D167E1B04800210160079993
:1005800009890181079941603168C1600020AC4947
:1005900008600020AB4908700020CB49086008269D
:1005A000144800783100084205D00798407B0121AB
:1005B0000143079841738820205800281ED020004E
:1005C00003F048FA0C21C943884207D088202058FC
:1005D000002813D00848008800280FD0E06A0028BF
:1005E00002D1200004F040FE280096300188491C0A
:1005F000018014E152CE00204ACE0020B3480460AE
:10060000200000F0BDFA6946087369460C200856C0
:100610000C21C943884200D101E18A480078304268
:100620001CD0A0202058002805D00D21C9432069E6
:10063000A022A25890472100034803F0A1FC20000B
:1006400002F04FFBEBE000BFF8CD0020983201082C
:10065000482E0108C0320108742E010800206946A6
:10066000087399480068002828D097480668002E2B
:1006700021D0AB48864201D2350000E005002800B9
:1006800080B2361A90202058002809D02A0092B251
:10069000210020699023E35898476946087302E0D7
:1006A00000206946087369460C2008560C21C9438E
:1006B0008842DCD1B3E0002083490860200000F0CC
:1006C00007F9002800D0AAE05D4D2868002866D010
:1006D000002000906946286802F066FA88202058B9
:1006E000002806D00B4BF32252008E490B4801F034
:1006F000DFFCA07EC0061BD5286802F067F80098D2
:10070000002802D0009802F061F8200002F008FDF5
:1007100085E000BF20230108A02E010870320108E7
:10072000FCCD0020582C0108F8CC0020F4CD00208E
:1007300094202058002809D000232A68210020692D
:100740009426A659B0476946087307E000232A6833
:100750002100002003F04EFA6946087369460C2018
:1007600008560C21C943884206D10098002802D0BF
:10077000009802F02BF852E069460C200856002839
:100780000AD00098002803D00099286802F0A8F841
:1007900028688821605002E00098286094E72020B3
:1007A0002849097801422FD088216158002907D0B3
:1007B00088216158497B084388216158487323E0A8
:1007C000608BC00501D5B34800E0B248A16A814200
:1007D00002D0A06A401CA06294202058002809D0B2
:1007E000002300222100206994256559A847694605
:1007F000087302E000206946087369460C20085619
:100800000C21C94388420AD00020304908602000EA
:1008100000F05EF8002802D1200004F003F8002563
:100820002A48056006480560044E7068002840D0DC
:10083000706801F0CBFF75603BE000BF28CD002061
:1008400014CE002053CE00203168087B4A7B12066C
:10085000120C104380B201F054FD400726D428004A
:10086000A0300188491C0180280096300188491C6D
:100870000180316808784A781206120C10433268F9
:100880009178D3781B061B0C194380B2029089B271
:10089000019106980090059BA8480068A84909881E
:1008A0004218A8480168002004F094FC079801F061
:1008B0008DFF07E0280096300188491C01800798C9
:1008C00001F084FF09B0F0BD10CE002018CE00204A
:1008D00010B50400002C05D19B4B9C4A9C49124842
:1008E00001F0E6FB10209B4909780200114215D067
:1008F000618B014209D1A0202058002805D00E218B
:10090000C9432069A022A25890472100924803F0D1
:1009100037FB200002F0E5F9012000E0002010BDC7
:10092000FFFF00009C3F010870320108F0B585B060
:100930000500C84E3078400700D5A8E0002D05D14D
:10094000814B864A8649874801F0B2FB3078C00661
:1009500021D585490A68107853781B061B0C18436B
:1009600009688A78CB781B061B0C1A437F4980B232
:10097000029092B201920800103000900B001433E4
:100980006E4800686E49098842186E480168280060
:1009900004F020FC7BE03078800778D5687D03F098
:1009A000F9F90400002C10D171480188491C01801C
:1009B000A869002806D00022D24300212869AB692B
:1009C000984701E00F20C04361E068484169216019
:1009D00000696060E88AE082634F396808784A7885
:1009E0001206120C1043208303202075534E3068EA
:1009F000401C6062606A2063200003F021FB0490C9
:100A0000049820660498A0650498A0640498606621
:100A10003068401EE065286920618C202550687A86
:100A20000C2101406172287A20724B480168E16014
:100A3000046004F073FD01204E490870200001F0AD
:100A40006FFA3968887BCA7B1206120C104380B299
:100A5000A066A06EE066201D04F03AFE0100221D93
:100A6000E08E03F003FBE0861221200003F0D4FDAA
:100A70006946087369460C200856002804D00021F6
:100A8000200002F0C1FA02E0200003F0CBFE05B026
:100A9000F0BD0000F01400003EB504006D4D287854
:100AA000400749D4002C05D1274B334A33492D4800
:100AB00001F0FEFA022128780A0010422CD01F48CB
:100AC0000268636AD21A002A2CD40268636AD21AB6
:100AD000A36AD21A012A25DA234A136819785D78A5
:100AE0002D062D0C294313689A78DD782D062D0CE0
:100AF0002A431E4B89B2029192B201921900103121
:100B00000091143300680E49098842180D480168A5
:100B1000200004F05FFB0FE02878C00702D59D4855
:100B20000068206206480088002805D0608B0143D9
:100B30006183200003F076FE37BD000008CE002060
:100B40004ACE00200CCE0020202301085A020000CB
:100B5000E832010853CE0020F8CD002081020000C9
:100B6000C03A01087032010800CE0020F8CC002005
:100B700018CA00204FCE0020EE020000E03A010823
:100B8000F0B585B004000027380069464873380086
:100B900069460873002C06D1BC4BC7229200BC49A1
:100BA000BC4801F085FA2B480078400740D5207DED
:100BB000022808D1C6480068A16D88421CD10120D6
:100BC0006946487318E0C3480168626A914203D1DC
:100BD0000120694648730FE00168626A891A00299A
:100BE0000AD40068616A401AA16A401A012803DA2F
:100BF000608B0221014361836846407B002815D049
:100C0000207D002806D1A14BCE229200C749A148E1
:100C100001F04EFAC648017808220A430270608B40
:100C2000C449014061830D20C043B3E20020B1E21A
:100C3000022508480078290008420DD0207D0228AE
:100C40000AD0207D032807D0608B054365830020F0
:100C5000A0E200BF52CE00201026608B3100084277
:100C600002D14C48006820623800AB216054380043
:100C7000AA216054200001F053F9207D022814D0ED
:100C800000D286E2042800D1B0E100D2E0E00628DC
:100C900000D106E200D2B6E1082800D12EE200D24F
:100CA000A4E1092800D15FE273E2CA480178122268
:100CB0000A40122A00D09EE085490A68A36C5B1C9A
:100CC0009A4200D097E083480268521C6262626ACE
:100CD00022630968A164C0490A68917BD37B1B0623
:100CE0001B0C194389B2A166A16EE1660068401E23
:100CF000E06504202075201D04F0EAFC0100221D9F
:100D0000E08E03F0B3F9E086B448E18E02224A4354
:100D1000824203D3E28E0221514300E0B049E28EC9
:100D2000042353438B4203D2E18E0420484309E05D
:100D3000E18E02224A43824203D3E18E02204843DD
:100D400000E0A748E0647420205A002806D14F4BE9
:100D5000DB229200A3494F4801F0AAF97420205ADF
:100D6000401E74216052802020580490049800286E
:100D700012D1E06F04900498002806D1434BDD2285
:100D800092009949434801F093F904980068E0679C
:100D900006E000BFECCD0020049800688021605080
:100DA000049802F0DAFE80202058002803D10020A9
:100DB000C043A08604E03800A08638004621605475
:100DC00098202058002808D000222100206998236C
:100DD000E35898476946087301E0684607730C209A
:100DE000C0436A460C215156814200D1D2E1608B4A
:100DF000054365832BE00078304228D076490A68A5
:100E0000107853781B061B0C184309688A78CB7836
:100E10001B061B0C1A43C64980B2029092B2019283
:100E20000800103000900B0014332A480068C149B4
:100E30000988421826480168200004F0CBF94620B2
:100E4000205C062803DAA786200003F0F5FFA0E166
:100E500060480178314200D1AEE01D480168A26CC3
:100E6000891A491E002900D585E00168A26D891AFA
:100E7000012900DB7FE0042020758C202058002809
:100E80000AD10520C0436946087329E020230108E0
:100E9000B83F0108703201088C2020588069002872
:100EA00006D1BD4BEA229200BC49BD4801F000F9D1
:100EB0008C202058806900280ED000222100206953
:100EC0008C23E3589B6998476946087308E000BF84
:100ED0000CCE002008CE00200F20C04369460873C6
:100EE00069460C20085600280CD069460C2008568C
:100EF0000C21C943884202D0200002F011F90C20D5
:100F0000C04347E1200000F029FAA6480168002903
:100F100002D00168491E01603048E18E02224A4336
:100F2000824209D3E28E0221514306E0003B0108D0
:100F300053CE0020FEFF00002949E28E04235343D4
:100F40008B4203D2E18E0420484309E0E18E022265
:100F50004A43824203D3E18E0220484300E0204806
:100F6000E06491480078800632D5608B0543658344
:100F7000072020752CE0184A136819785D782D0633
:100F80002D0C294312689378D5782D062D0C2B4310
:100F9000674A89B202919BB201931100103100910E
:100FA00013001433B3490968624A12888A18016829
:100FB000200004F00FF90BE00078284208D0AD487B
:100FC0000068616A491E884202D1200003F052FF86
:100FD000DFE000BF52CE002000CE00201D11000037
:100FE0001C110000E4420108E8440108200000F060
:100FF000B5F96D480078800604D5608B054365839C
:1010000007202075C5E0200000F0A8F966480078A8
:10101000800637D59848007830422DD09748006830
:10102000A16D884228D1E06F002825D1608B05434F
:101030006583200002F062FF91480168A14203D15C
:101040000168C96801600AE00068002807D0C1682B
:10105000A14202D1E168C16001E0C068F5E7E76044
:101060000120884908700A202075B3480168E160B2
:10107000046004F053FA13E0608B05436583082095
:1010800020750DE07C480078304209D07B4800682C
:10109000A16D884204D1E06F002801D1062020759F
:1010A00077E0200000F05AF93F480078800624D508
:1010B000608B05436583200002F020FF70480168C3
:1010C000A14203D10168C96801600AE000680028F4
:1010D00007D0C168A14202D1E168C16001E0C068E7
:1010E000F5E7E7600120674908700A2020759248FB
:1010F0000168E160046004F011FA4AE0200000F0A9
:101100002DF95D48007830422DD05C480068A16D13
:10111000884228D1E06F002825D1200002F0EEFEA1
:1011200057480168A14207D10168C96801600EE013
:10113000F8CC00204ACE00200068002807D0C16803
:10114000A14202D1E168C16001E0C068F5E7E76053
:1011500001204C4908700A20207577480168E16039
:10116000046004F0DBF914E0200000F0F7F84248D6
:101170000078310008420BD040480068A16D8842D9
:1011800006D1E06F002803D1074801780E430670AE
:10119000FFE7002005B0F0BD20230108203B010837
:1011A0007032010810CE002053CE0020F8B50500A3
:1011B0000C00002D05D1B14B604A6149614800F037
:1011C00077FFE968087B4A7B1206120C104380B255
:1011D00001F097F8C00705D5200002F0B3FC00200D
:1011E000040045E0002C2BD0E068001D01F058FD04
:1011F000204909682A898918081A2189401A002873
:101200001ED4E168087B4A7B1206120C104380B2A0
:1012100001F077F8C0070DD5012001F072F8EA68F7
:10122000117B537B1B061B0C1943EA6808431073A0
:10123000000A507326002468300002F08EFCD1E7CB
:10124000002C15D0E068001D01F02AFD094F396817
:101250002A898918081A01280ADBE068001D01F0B4
:101260001FFD3968401A28812989686801F0C0F992
:101270002C60F1BD08CE002052CE00200CCE002004
:10128000F8CD00204FCE0020F7B505000C001F0060
:10129000002C4FD0E068001D01F002FD01F037F88E
:1012A0000600E168087B4A7B1206120C104380B2EC
:1012B00001F027F8800701D0012000E000202189FB
:1012C00071180818BE490968401A012832DA0194D9
:1012D00024680198406801F0E5FA694608807420A6
:1012E000285A69460988884205D2644B164A17492C
:1012F000144800F0DDFE7420285A69460988401A17
:101300007421685212480168019A12898918016093
:10131000019802F022FC7420285A0028B8D0002C32
:1013200007D1002F05D1554B0A4A0B49054800F05B
:10133000BFFEADE72000FEBDFCCD00201F04000075
:1013400010330108703201085704000038330108D7
:1013500010CE002062040000403B0108F0B585B0CB
:10136000040000200390002C05D1444BB24AB3493D
:10137000B34800F09DFE207D042805DA3F4BB14ABA
:10138000B149AF4800F094FEB0480078C00600D4E0
:101390009CE1A06E216E40180490AD48E16D02689A
:1013A000891A00291CD4E16D0268914205D1216E91
:1013B000834A1268891A002912D4216E804A126861
:1013C000914224D1A3490A68917BD37B1B061B0C55
:1013D0001943A26E89B2AC23E35C99408A4216D2CB
:1013E0009C490A68917BD37B1B061B0C194389B26D
:1013F000AC22A25C9140A166E16EA26E914201D244
:10140000A16EE1660068E0656D48006820666C4D7D
:101410002868A16C401A012844DA8F480088002807
:1014200038D1206EA16E40180499884232D1342000
:10143000205E00282ED4A06C296888422AD1012081
:1014400003904720205C4721615C491CC9B2884257
:1014500004D24720205C401C472160544720205C78
:10146000042810DBE06CE18E4018E16C884207D361
:10147000E06CE18E4018E06405E000BF2023010825
:101480000020C043E0644720205C032802DB2000EA
:1014900003F03EFD0398002800D0E2E00020472141
:1014A0006054DEE02868A16C401A401E002800D578
:1014B000D4E02868A16D401A012800DBCEE0A07EB0
:1014C000400707D5608BCB4901406183206DE06404
:1014D0000020A06700263000462160544020205E96
:1014E000C0104221615E4018442160522868A16CFE
:1014F000471A3000472160542868A064207D0428E2
:1015000044DBE06C216D88421ED2608B000501D562
:10151000012000E002200100C9B2E28E51438F4257
:1015200001D2390003E00100C9B2E28E5143E26CFE
:101530005218E36C9A4203D3E26C5218E26402E060
:101540000022D243E26421E0A06FC019A16F88425B
:1015500003D3A06FC019A06702E00020C043A067BA
:10156000A06FE16C884211D3A06FE16C401AA067B4
:10157000E06CE18E4018E16C884204D3E06CE18EAF
:101580004018E06402E00020C043E064E36F9A4A40
:10159000802021582000FFF777FE802160508020B6
:1015A0002358964AE16F2000FFF76EFEE067802027
:1015B0002058002806D10020C043A08603E000BFC9
:1015C0000CCE0020A686002001002177E16F0029C3
:1015D00001D176216052206F89490968401820673F
:1015E000608B00053DD580202058002812D1E06F87
:1015F00000280AD0E06FC068001D01F051FB00F028
:1016000086FE616D081A01282BDA608BC7490140FC
:10161000618326E080202058C068001D01F040FB57
:1016200000F075FE616D081A01281ADA608BBF4957
:101630000140618315E000BF7B040000D43F010836
:10164000703201087C040000F03F010852CE0020F7
:1016500008CE002000CE00204ACE0020200003F05B
:1016600003FEA06B002831D0E06B2968401A0028E7
:101670002CD5AF480068A16B401A00B24021615ED2
:10168000C910411A4020205A40184022A052080098
:1016900000B2002802D5080000B2414209B242203F
:1016A000205E8010081A694688804220205A0199DD
:1016B00009B24018422160524020205EC0104221F1
:1016C000615E4018442160520020A0639948008860
:1016D000002800D1EEE3207D072800DBEAE3964EE8
:1016E000606A3168401A401E002857D4606A316829
:1016F000401A90490988401A401C01284EDA8F4848
:101700004768606A3168401A02908C484068002837
:1017100005D18B4B8B4A8C498C4800F0C9FC029850
:101720008B49884205D3864B8A4A8B49874800F00B
:10173000BFFC029D814840680089290089B2884227
:1017400005D27F4B854A8649804800F0B1FC7B4832
:101750000089401B79490881784840680089401B0E
:10176000694608807889290089B2884208D2788938
:101770002D1A684600883881002078813F68F1E79B
:10178000290089B2380000F0E2FF606A30606B48DF
:10179000C068011D306801F08FFA08E03068616AA6
:1017A000401A002803D5608B022101436183306811
:1017B000616A401A002800D578E33068616A401AEF
:1017C000A16A401A401C012800DB6FE3606A31689F
:1017D000884200D043E2594DE968087B4A7B1206F3
:1017E000120C104380B200F08CFD80070AD001205B
:1017F00009E000BFFBFF0000E0470108E8470108DF
:1018000010CE00200020298908184A490880A06AC3
:1018100048490988884268D2E968087B4A7B1206F1
:10182000120C104380B200F06CFDC0071BD5E968B4
:10183000087B4A7B1206120C104380B200F061FD57
:101840000100C9B23E20084000F05BFDEA68117B50
:10185000537B1B061B0C1943EA68424B0B40184391
:101860001073000A5073A06A80214902884205D390
:10187000334B3D4A3D49354800F01AFC2F000837EC
:10188000A06A3880E968087B4A7B1206120C104374
:1018900080B200F036FD800702D52889401E3880CE
:1018A0002989686800F0A4FEE968087B4A7B120673
:1018B000120C104380B200F024FD800701D00120FB
:1018C00000E00020298908181A4908803068194961
:1018D00009884018616AA26A8918884205D0184BA5
:1018E000D14AD249194800F0E3FB8420205800284F
:1018F00000D1D4E0E968087B4A7B1206120C104341
:1019000080B200F0FEFCC00732D5842020580028A9
:1019100000D1C4E084202758842020580068842106
:101920006050380002F019F9EFE700BFFFF7000040
:10193000ECCD00204ACE002008CE002028CD00208B
:101940002023010894050000744601087032010844
:10195000FFFF000095050000844601089705000080
:1019600094460108FFC00000C4050000FC420108C5
:1019700084202758002F48D0F868001D01F090F906
:101980003168AB4A12888918081A3989401A002828
:101990003BD4F968087B4A7B1206120C104380B2D4
:1019A00000F0AFFCC0072AD5E968087B4A7B120625
:1019B000120C104380B200F0A4FC80071FD4012059
:1019C00000F09FFCEA68117B537B1B061B0C19433C
:1019D000EA6808431073000A5073E968087B4A7B81
:1019E0001206120C104380B200F08BFC800701D06D
:1019F000012000E00020298908188D4908800097FF
:101A00003F68009802F0A9F8B4E7002F45D0F868C5
:101A1000001D01F045F93168854A12888918081AB5
:101A200001283ADBF868001D01F03AF93168401AE4
:101A30002881E968087B4A7B1206120C104380B2A9
:101A400000F05FFC800702D52889401E2881298983
:101A5000686800F0CDFDE968087B4A7B1206120C2D
:101A6000104380B200F04DFC800701D0012000E05F
:101A70000020298908186E490880F868001D01F0C7
:101A80000FF931686A4A12888918814205D0694B7A
:101A9000694A6A496A4800F00BFB84202750644F6A
:101AA0003068398840186062A06A3988884205D257
:101AB000604B644A6449624800F0FAFAA06A3988C7
:101AC000401AA062200001F03BFC686800890028F1
:101AD00004D068685D49086000206860E968087B98
:101AE0004A7B1206120C104380B200F00AFCC007B9
:101AF00004D55748017820220A43027084202058D8
:101B0000002800D183E084202058C068001D01F027
:101B1000C7F8616A88427AD18420275884202058E7
:101B2000C068001D01F0BCF83060F968087B4A7B92
:101B30001206120C1043032580B200F0E2FB2900CC
:101B4000084201D0012000E00020616A3A8989182A
:101B500008186062F968087B4A7B1206120C104371
:101B600080B200F0CEFB2900084201D0012000E045
:101B70000020A16A3A891018814205D22D4BBC4A37
:101B8000BC492F4800F094FAF968087B4A7B12069A
:101B9000120C104380B200F0B4FB284201D00120A7
:101BA00000E00020A16A3A89891A081AA062200080
:101BB00001F0C6FB7868008900280CD02348016832
:101BC000002904D07968006800F08AFE01E0796895
:101BD000016000207860F968087B4A7B1206120CCD
:101BE000104380B200F08DFBC00709D5184801787A
:101BF00020220A430270207D042801D1072020758D
:101C0000386884216050380001F0A7FF76E7A07E95
:101C1000C0071FD5608BC04901406183608B0221E2
:101C2000014361831AE000BFCC0500006C28010865
:101C30004ACE002020230108FD050000D826010817
:101C40007032010807060000603B010814CE002036
:101C500053CE0020608B0121014361833CE184204D
:101C60002058002805D1AD4801F09CFF8421605028
:101C700018E10020009084202558002D00D111E1AA
:101C8000E868001D01F00CF83168814217D1A348C3
:101C900029890289914211D201F084FF0600002EA9
:101CA0000BD00098002802D00098066001E0842044
:101CB000265029003000FFF779FAF3E0F2E00098AF
:101CC000002814D1E868001D00F0EAFF3168081A06
:101CD000002847D5914801F065FF0600002E05D089
:101CE0008420265029003000FFF760FADAE00098DF
:101CF000C068001D00F0D4FF3168081A401E00289B
:101D000030D4E868001D00F0CBFF3168081A401C91
:101D1000012827DA814801F045FF0700002F20D075
:101D20000098C068001D00F0BBFF009909894018A9
:101D30003168401A01280EDB0098C068001D00F0D1
:101D4000AFFF3168081A009908810098018900984E
:101D5000406800F04DFC0098076029003800FFF74C
:101D600025FA9FE000952868002800D098E0E868F0
:101D7000001D00F095FF3168081A012800DA8FE095
:101D8000E968087B4A7B1206120C104380B200F00F
:101D9000B8FAC00700D585E0604801F003FF28606D
:101DA000286800287BD0E868001D00F079FF2989A9
:101DB00040183168401A01280ADBE868001D00F06D
:101DC0006FFF3168081A28812989686800F010FCC3
:101DD000A24F388831684018616A401AA16A401AD7
:101DE00001285CDB2868C168087B4A7B1206120C5C
:101DF000104380B200F085FAC0071ED52868C1687C
:101E0000087B4A7B1206120C104380B200F079FA6C
:101E10000100C9B23E20084000F073FA2968CA6880
:101E2000117B537B1B061B0C19432A68D2688C4B11
:101E30000B4018431073000A5073606AA16A40187F
:101E40003168401A29680881286801892868406833
:101E500000F0CEFB2868C168087B4A7B1206120C92
:101E6000104380B200F04DFA800705D0012004E055
:101E70002C06000060330108002029680989081831
:101E80003880306839884018616AA26A89188842A7
:101E900005D0744B744A7549754800F009F901E0A2
:101EA0002D68EAE6200003F0DFF915E0200003F0DA
:101EB000DBF911E06F480168626A891A002907D4CA
:101EC0000068616A401AA16A401A401C012803DBBD
:101ED000608B02210143618305B0F0BD10B56648F7
:101EE00001880288521C028064480268002A05D0DA
:101EF000634A0B0014889BB2A34205D26148006874
:101F0000143089B2405C05E00B0012889A1A006810
:101F1000D2B2805C10BD0000FEFF000028CD002082
:101F2000F8B50400002C05D14E4B574A574950488C
:101F300000F0BEF856480088002800D187E04E4ED9
:101F400000203080524D30882988884200D37EE0BE
:101F5000FFF7C4FF07003800C0B2002805D00228F0
:101F600005D003D3032824D062E070E0EAE7FFF74E
:101F7000B5FF042804D128883188891C884200DAFA
:101F800065E0FFF7ABFF0502FFF7A8FF28436946AE
:101F90004880684640883F49884203DA684640885E
:101FA000002802D18620800001E068464088E08653
:101FB000C8E7FFF793FF032804D128883188491C1C
:101FC000884200DA43E0FFF789FF6946087032482B
:101FD000007880072BD580204000618B014226D1FC
:101FE00069460978AC22A154AC21615C0F2902D367
:101FF0000E21AC22A1540021AD22A154618B0843D3
:102000006083264DA06AA84205D0164B244A254974
:10201000174800F04DF8E06AA84205D0114B224A5B
:102020002049134800F044F8E562E06AA06289E7BD
:10203000FFF754FF6946087068460078022806DBFF
:102040003088694609784018801E30807AE7F1BDF3
:102050001648017810220A43027070474ACE0020C9
:10206000FFC0000020230108F90600006C280108C9
:102070007032010808CE002048CE002004CE002097
:1020800046CE002000CE00207D0700000C40010855
:1020900044CE00201902000052CE0020F0140000AF
:1020A000AD07000028400108AE07000053CE002015
:1020B0000EB4C0B5020003A801900020009001AB4F
:1020C0000121044878440C3003F0AEFD029906B0BB
:1020D000084700BF4923010030B502001300D04378
:1020E000002801D0002A01D101201BE02D20085C2E
:1020F000800701D4002015E04868824201D1002009
:1021000010E0886818404C688D682540A84208D1C6
:102110008868C44314408868C543AC4201D101209B
:1021200000E0002030BDF1B4016842184168480861
:10213000131800988068C9071ED5494640181BE04F
:102140001778521C0770401C761EF9D1002C13D052
:102150001678521C89080D40032D01D11578521CA8
:10216000290271184D424119A41C05D00D78491C53
:102170000570401C641EF9D19A420FD01178521C90
:10218000032503260E4002D11678F61C521C0C09BA
:102190000F2CD9D114780F34521CD5E700980C308D
:1021A000F2BC7047F8B502001400002003006D4631
:1021B0002B802300DB07DB0F002B06D0012904DB7B
:1021C00025786E467570641C491E2500022904DBC3
:1021D0002E888019AD1C891EF8E7012902DB2E78B4
:1021E0006F463E706E4636888019060C80B23018F5
:1021F000060C80B23018002B06D00702FF263602EC
:102200003E40000AC0B2304380B2F2BDF7B51C00B8
:1022100000273E00009D002D1CD069896868FFF7EB
:10222000C1FF2018010C80B208180400688902213F
:1022300004F00EFD00290BD0002E01D1012600E094
:102240003E002002FF2109020140200AC4B20C43D3
:102250002D68E0E7002E06D02002FF210902014090
:10226000200AC4B20C436846007980B200F049F8F5
:1022700027186846008900F044F83818010C80B22D
:102280000818010C80B20918C84380B2FEBDF7B52A
:1022900082B01F000A9E3D68A8B2290C401834681D
:1022A000A1B24018210C4018010C80B20818010C92
:1022B00080B208180090009B6846028A6846017B3D
:1022C0000298FFF7A3FF05B0F0BDF8B507000E00B8
:1022D00015001C000698009023002A0092B23100DD
:1022E000C9B23800FFF7D3FFF2BD38B504000D00C6
:1022F000290089B22000FFF755FF0100C84380B2D2
:1023000032BD010280B2000A084380B27047010664
:102310000202FF231B0413400B43010AFF22120297
:102320000A401A43000E104370472E0010B50020DB
:102330009549087095480468002C09D084202058DD
:10234000002803D0200001F02FFF01E0E468F3E74C
:1023500010BD01208C4908707047F0B4049C059DA5
:1023600000260660416002814381270007734573A0
:1023700001278773C673F0BC7047F7B586B068460F
:10238000007E69460881089800B2401E08D0403897
:1023900006D0FF214231401A0BD0FE3875D0BCE088
:1023A000089A12B26846818B002000F0C2F806003D
:1023B000BCE00026002004906846858B082004F0CD
:1023C00003FD03900398002808D1FFF7C2FF002EF9
:1023D00002D0300000F0FAF90020A8E0B04CB1487B
:1023E000290022006B461B89DB1C0340D21A89B2EC
:1023F00092B2914201D22F0005E021006A46128973
:10240000D21C10400F1A00200190089800B20090D2
:102410003B009BB22A0092B2039869460989401892
:1024200001001031C91C032081430398FFF795FF79
:1024300003980079800706D09B4BFF22921C9B4992
:10244000BC48FFF735FE68460089C01C032188435D
:10245000201A002806D1944BFF22121DB649B54818
:10246000FFF726FE002E02D10398060002E0039833
:102470000499086003980490ED1B002069460881C8
:10248000280080B2002899D150E086486946098921
:10249000C91C01406A46928BD21C10400C182500C2
:1024A0001035200080B26946898BC91C03229143F4
:1024B000884208D3280080B26946898BC91C032250
:1024C0009143884201D2002031E0280080B204F01C
:1024D0002FFF0600002E01D1002028E000200190EF
:1024E000089800B200906846838B6846828B6846E5
:1024F0000089301801001031C91C032081433000CD
:10250000FFF72BFF3079800706D0674BFF2224327C
:10251000A8498848FFF7CCFD08E0634BFF2228322A
:10252000A5498448FFF7C4FD002000E0300009B051
:10253000F0BDFEB507000E001500280000B24128CE
:102540000AD0280000B2012806D0574BA52252001D
:102550009A497848FFF7ACFD072004F035FC0400E9
:10256000002C01D100200DE000200190280000B2D5
:10257000009033009BB2320092B239002000FFF786
:10258000ECFE2000FEBD00004ECE0020F8CD002065
:10259000F5B583B00E001D006846077B6846808D48
:1025A000390089B2C91C03229143320092B28918C2
:1025B000884201D2002019E00A98002807D00A9822
:1025C000390089B2C91C03229143441800E0002459
:1025D00002200190049800B2009033009BB23200B8
:1025E00092B221002800FFF7B8FE280005B0F0BD28
:1025F000F8B506000F00002E06D12B4BCC2252005E
:102600006F494C48FFF754FD3800318980B2884249
:1026100045D23089C01B694608803D00340060897E
:10262000290089B2884211D260892D1A2089694611
:102630000988401A20812468002C06D11A4BFF22F9
:10264000B03260493B48FFF733FDE8E7207B0007E5
:10265000000F002818D12800618980B2884213D069
:10266000607B800710D46068001B411989B220008C
:1026700004F042FD0400002C06D10B4BFF22BE32B9
:1026800051492C48FFF714FD65816089208120683D
:10269000002802D0206800F099F800202060F1BDE9
:1026A000F4050000FCFF000060220108382B01083F
:1026B00070B504000D001600002C06D1774BFF22E8
:1026C000E03277491B48FFF7F3FC002C03D0802051
:1026D0004002854201D301202BE0002D01D10020D2
:1026E00027E02900208908180A0080B292B290429F
:1026F00001D201201DE0227B100608D560686B42E4
:10270000C3182000103083420BD2012011E03000AA
:10271000C0B2002803D060686B42C31801E00120FA
:1027200007E063606089401860812089401820813B
:10273000002070BDE03001087829010838B5050097
:102740000C00002221002800FFF7B2FF32BD70B557
:1027500004000D00002C05D1504B604A50498148BF
:10276000FFF7A6FC002C03D080204002854201D355
:1027700001201CE0002D01D1002018E02E0060890E
:10278000310089B2884207D2444B6E4A6E4975487F
:10279000FFF78EFC01200AE0616860684019606004
:1027A0006089801B60812089801B2081002070BD92
:1027B00000000000402D0108303E0108844401085B
:1027C000DC410108F44101084C3E0108FEB504005B
:1027D000002C0AD1002C06D1304BB7229200304990
:1027E0006048FFF765FC002057E000263500002C0C
:1027F00051D0A07B002805D1284B5B4A5B49594842
:10280000FFF756FCA07B401EA073A07B69460870B2
:102810006846007800283CD120680290207B0007A1
:10282000000F0700607B80070FD5019401980069B5
:10283000002805D1194B4E4A4E494A48FFF738FC4B
:1028400020000199096988471FE03800C0B20228BA
:1028500004D12100082004F0E8FA16E03800C0B2E4
:10286000012804D12100072004F0DFFA0DE0380030
:10287000C0B2002803D1200004F0C4FB05E0074BE0
:102880003D4A3E493748FFF713FC6D1C029804008F
:10289000ADE73400ABE72800C0B2FEBD60220108FE
:1028A0007847010800B501000020002902D0401C33
:1028B0000968FAE780B200BD10B50400002C0BD007
:1028C000A07B401CA073A07B002805D1724B734AEB
:1028D00073492448FFF7ECFB10BD00004B020000D9
:1028E00070B506000D00002E01D0002D06D16A4BF8
:1028F0006C4A6D491B48FFF7DBFB21E03400206880
:10290000002805D020892989401820812468F6E70D
:1029100020896189884205D05F4B644A6449114827
:10292000FFF7C6FB2068002805D05B4B614A62496F
:102930000C48FFF7BDFB20892989401820812560BC
:1029400070BD000055020000003A010838B50500CE
:102950000C0021002800FFF7C3FF2000FFF7ACFFA9
:1029600031BD0000E0300108F10200000C42010816
:10297000FF020000A83601080F0300009844010878
:10298000F8B584B005000C0000270026002D05D006
:10299000002C03D028892189884208D23E4B7A4AEC
:1029A0007A497B48FFF784FB0F20C04371E06889B8
:1029B000C01B6189891B884203D36089801B0090FA
:1029C00002E06889C01B009000980390606880193D
:1029D00002906868C0190190039A0299019804F066
:1029E000DBFD019800983F18009836186889B842B6
:1029F00005D2294B674A68496548FFF759FB60894A
:102A0000B04205D2244B654A65496148FFF750FB47
:102A10006089864202D300200600246868898742C4
:102A200010D1002007002D68002D0BD1002C09D0FB
:102A3000194BF92292005B495548FFF739FB0F20EB
:102A4000C04326E0002C0FD06089218988420BD139
:102A50002068002808D0104B734A74494C48FFF78F
:102A600027FB0520C04314E0002D0FD06889298979
:102A700088420BD12868002808D0074B6C4A6B4964
:102A80004348FFF715FB0520C04302E0002C8ED120
:102A9000002005B0F0BD00006022010842030000E4
:102AA000AC4401085A030000C42701086203000077
:102AB000682B01086303000014460108FBB584B0CD
:102AC0001400002600250498002807D1594B5A4AC3
:102AD0005A492F48FFF7ECFA002052E005980028E9
:102AE00007D1544B564A57492948FFF7E1FA0020CD
:102AF00047E0049F200080B2002840D0002F3ED045
:102B00006846008B00280BD06846008B7989884284
:102B100006D36846008B7989401A694608832CE001
:102B200078896946098B401A694608802000694601
:102B3000098880B2884201D26846048068460088CD
:102B4000039078686946098B401802900598310017
:102B500089B240180190039A0299019804F01CFD73
:102B60000198684600882D1868460088361868461F
:102B70000088241A0020694608833F68BAE72800C5
:102B800080B207B0F0BD0000CA030000982B010816
:102B9000E0300108D903000024420108DA030000F4
:102BA000683E010824460108F2B50700002000999C
:102BB0000860002F36D03968002933D07E8939006B
:102BC0003C68002C0BD06289B218330092B29BB2E1
:102BD0009A4204D36289B61821002468F1E708609C
:102BE000002C1FD03D00002D13D028892189401AC8
:102BF0002881286800280AD128896989884206D056
:102C00000C4B8E22D20021492148FFF751FA2D6842
:102C1000E9E72020797B014202D0617B08436073A1
:102C200000980460F1BD0000EA0300006C2D01086B
:102C3000EF030000602201080A040000203A0108A6
:102C40000B040000CC360108F1B50F0015003A0066
:102C500012B2298968460078FFF78FFB0400002C28
:102C600001D100200FE029002000FFF789FE0600B7
:102C7000300040B2002805D0064B074A07490448F7
:102C8000FFF716FA2000F2BD00000000F036010840
:102C9000E03001086022010824050000C04401085A
:102CA000C3788278417800781B021A430902120423
:102CB000084310437047FEE784460870000A4870D6
:102CC000000A8870000AC8706046704780B504F03A
:102CD00071FC8004800C8021C901401AAD49088034
:102CE00001BD10B50400207D012805D1804BD42200
:102CF0008049A948FFF7DCF92100012004F095F88C
:102D000010BD10B50400207D012805D1784BDF22CD
:102D1000A249A148FFF7CCF92100022004F085F870
:102D200010BD80B500F04AFEAA480178491C017028
:102D30000078C00701D500F0DBFB01BD38B5050008
:102D40000C00002C05D16A4BFF22A3499248FFF7E3
:102D5000AFF92800002808D08C214158A14202D1A7
:102D600000218C228150C068F4E731BD38B50400E1
:102D7000002C06D15E4BFF22123298498648FFF79D
:102D800097F9207D012806D0594B89225200944999
:102D90008148FFF78DF90125042D09D221009248C1
:102DA00004226A4380580068FFF7C8FF6D1CF3E7F0
:102DB00031BD3EB504000D00002C06D14C4BAF22B6
:102DC000520088497448FFF773F92800C0B2002800
:102DD0004FD0207D042802D0207D072849D18820AB
:102DE0002058002808D1608BC00501D57F4800E03D
:102DF0007E48A16A81423CD0A07EC00606D43C4BEE
:102E0000B22252007A496448FFF752F9208B0290AF
:102E1000E08A0190201D00902300626AA16D2000CD
:102E200002F0D8F9200001F069F872480168A14267
:102E300003D10168C96801600AE00068002807D072
:102E4000C168A14202D1E168C16001E0C068F5E754
:102E50000020E06001206849087068480068A042CE
:102E600002D1FFF7F5F802E02000FFF73AFF00205B
:102E70003DE0207D002803D0022828D01CD331E07B
:102E8000E08A002814D05E480168A14203D101689D
:102E9000C96801600AE00068002807D0C168A14243
:102EA00002D1E168C16001E0C068F5E70020E060A0
:102EB0002000FFF716FF19E02000FFF757FF210061
:102EC000504801F05DF82000FFF71BFF0EE02100E5
:102ED000484801F055F80120474908702000FFF7E5
:102EE00000FF03E0200000F007F800E000203EBDF6
:102EF000C0220108D444010838B50400002C06D1D2
:102F0000854BCE22520035492348FFF7D1F8207D6A
:102F1000032804D004280DD0072816D020E0200074
:102F200001F032FB0500280040B2002801D1052045
:102F3000207517E0200001F027FB0500280040B2B3
:102F4000002801D1052020750CE0200001F01CFBB9
:102F50000500280040B2002801D10920207501E0B9
:102F6000002015E0280040B2002803D1200001F025
:102F700059FC0BE028000021C94340B2884205D12A
:102F8000608B082101436183002001E0280040B2EA
:102F900032BD0000C001002008310108843E010854
:102FA00010B50400002C09D15B4BF42252005B49A0
:102FB0009748FFF77DF80F20C0430AE0207D0128E5
:102FC00003D0608B10210143618301212000FFF7B2
:102FD000F0FE10BD50CE00203031010884470108BA
:102FE0003C420108403A010854460108F014000030
:102FF000A03E0108F8CD00204FCE002018CE0020C2
:10300000F0CD0020F4CD0020F0B587B004000E0014
:10301000002C06D1404B894A89497D48FFF748F882
:1030200077E0207D012805D13B4B864A86497848C8
:10303000FFF73EF8207D0A2807D12100834800F0E1
:103040009FFF2000FFF74DFE63E000200390050086
:10305000A16D0691616A0591A02161580F00216957
:103060000491217D002917D1E18A00291ED07849D9
:103070000A68A24203D10A68D2680A600AE00968B5
:10308000002907D0CA68A24202D1E268CA6001E002
:10309000C968F5E7E06009E00396E08A05002100D1
:1030A0006C4800F06DFF0120A34908708020205873
:1030B000002803D08020205800F044FDE06F002855
:1030C00002D0E06F00F03EFD84202058002803D09D
:1030D0008420205800F036FD039800280CD0208B67
:1030E0000290280080B20190201D00902300059AD4
:1030F0000699200002F06EF8207D694608702000D5
:10310000FFF7EFFD3800002803D00C21C9430498D5
:10311000B84707B0F0BD0000C022010854420108C2
:1031200010B5040001212000FFF76EFF10BDF1B5BE
:1031300082B00D00170004200090002D01D17F48BF
:1031400005000298002808D1934B944A94493048CE
:10315000FEF7AEFF0F20C04358E00298007D002824
:1031600008D08D4B8F4A90492948FEF7A1FF0520D2
:10317000C0434BE0380080B2002809D100F05AF972
:103180000700380080B2002829D10120C0433DE06B
:10319000002006000098864221DA84480421714309
:1031A000405800680400002C17D0E08A390089B22A
:1031B000884210D1002C0BD02068002808D0002DA8
:1031C00006D02868002803D020682968884202D1E8
:1031D0000720C0431AE0E468E5E7761CDAE7002D33
:1031E00009D02868002806D0002D01D1002000E079
:1031F0002868029908600298C782A7480168029A65
:10320000D1600299016002F089F90020FEBD000042
:103210000831010870B506000C001500002C05D11E
:103220005D4B824A82499D48FEF742FF2000FFF72E
:1032300077FF0C20C04370BD000000003D0200007D
:10324000BC3E010841020000AC290108FCCD002071
:10325000F0CD0020F8CD002038B505000C0000228C
:103260002100C9B2280000F001F832BDF2B5040017
:10327000170000263500002C08D1474B884A8949A1
:103280008648FEF715FF0F26F6434FE0207D002805
:1032900008D0414B844A85498048FEF709FF0E2635
:1032A000F64343E0207D012803D125000826F6439C
:1032B0003CE0022003F088FD0500002D02D100262D
:1032C000F64333E020692861E08AE882012028750E
:1032D000607D6875607A687230002872E07AE87202
:1032E000A07AA87220682860E08A002813D06A4873
:1032F0000168A14203D10168C96801600AE0006861
:10330000002807D0C168A14202D1E168C16001E094
:10331000C068F5E7E6602000FFF7E3FC6448A861B9
:1033200064480168E960056002F0F8F8002F00D0F9
:103330003E702800F2BD00004FCE0020F847010883
:1033400010B50400002C05D1134B5B4A5B49534870
:10335000FEF7AEFE606AA16A4118E08E584A9042BC
:1033600001DB584800E0E08E226B8A1A101A002810
:1033700004D4A06AE062206B081A0CE0606A226B39
:10338000801A012802DB0020E06203E0206B626A01
:10339000801AE062002010BDC0220108A9020000CE
:1033A0006C420108AB020000583101085446010884
:1033B000F8B504000F00002C06D1444B424A4449A2
:1033C0003648FEF775FE30E0207D012805D13F4BE1
:1033D000404A41493148FEF76BFEA06A390089B284
:1033E000451880204000618B014201D03B4900E03C
:1033F0003A49A94202D3A16A8D4207D2618B0142A8
:1034000001D0364800E03548A06200E0A562200007
:10341000FFF796FF06003248864206D3608B0221F2
:1034200001436183200001F0FDF9F1BD0F030000AD
:10343000603A0108F0B5002003002A4C25886D1C75
:1034400025802588284EB54202D1C0252D02258031
:1034500005002A001500EDB2042D1BDA234D1600DD
:10346000F6B204277E43AD592D68290000290FD0FC
:10347000CD8A2688B54209D15B1C1C00A4B28025E8
:10348000ED01AC4201DB002005E0D6E7C968EDE7BD
:10349000521CDFE72088F0BDF0CD00200831010884
:1034A00059030000C82B01085A030000FC2701083B
:1034B00015320008F4CD0020A603000014370108DF
:1034C000790A0000780A0000CF030000C02201083A
:1034D00084420108D303000080310108F014000089
:1034E0003C050000C0010020FFFF00005446010819
:1034F000F0B587B000206946087395480068401C05
:103500009349086093480078401C92490870002055
:103510000490914800680400002C00D100E2207D56
:10352000002805D18D4B8E4A8E498F48FEF7C0FD8D
:10353000207D012805D1894B8C4A8D498A48FEF7A8
:10354000B7FD207D0A2806D1844B9822D2008949F4
:103550008548FEF7ADFD7F48A17F0278914202D1F8
:103560000494E468D8E70078A077002630000500CE
:10357000300069464873207D022805D14620205C32
:10358000062801DB6D1CB8E04620205C0C2801DB1E
:103590006D1CB2E0A920205C002858D08020205863
:1035A000002805D06D4B744A74496F48FEF780FDC2
:1035B000E06F002805D1694B714A72496A48FEF7ED
:1035C00077FDAA20205C0C2801DB6D1C95E06E487D
:1035D000A921615C4018401E007869460870A82047
:1035E000205C69460978884204D2A820205C401CEF
:1035F000A8216054A820205C6946097888427CD3C1
:103600000127A06E002806D1200001F0BDFE002891
:103610000ED037000CE0A16E89B2200000F07AFED7
:10362000002805D1200001F0FDF8002800D1370066
:10363000002F62D03000A8216054A920205C072808
:103640005BD2A920205C401CA921605455E03420A5
:10365000205E002807D43420205EA849884202D08A
:10366000A08E401CA0863420205E4421615E8842EA
:1036700043DB200001F06DFB002806D0802020589D
:1036800000283AD1E06F002837D0207D022818D0DA
:103690004620205C0C2802D24620205C00E00C2052
:1036A0004021615EC9104222A25E8918C04A03000F
:1036B000DBB2D25C9140914A914200DB1100442080
:1036C00021523000A086E06CA16E884202D2E06CEC
:1036D000059001E0A06E0590059840082065206DDA
:1036E000E18E4900884202D2E08E40002065E08EE3
:1036F000E064A667200001F083FB207D062809D145
:10370000A07EC00606D512480068216A401A292802
:1037100000D36D1C607A000757D5207D042802D0A5
:10372000207D072851D10A4FA4202058A1494018D4
:10373000FA21490003F08FFA3968226A891A88420F
:1037400024D26D1C6846407B401C694648733CE0AF
:10375000ECCD002051CE0020F8CD0020C022010881
:10376000BE040000982D010808310108BF040000C4
:10377000C42D0108F82B0108D4040000E029010839
:10378000D504000034280108D8470108A420205897
:10379000AB21615C884A51434018FA21490003F08B
:1037A0005AFA3968226A891A88420ED2200001F03A
:1037B000AFFD6946087369460C200856002804D1FD
:1037C000AB20205C401CAB21605484202058002892
:1037D0000CD098480068216A401A4421615E062294
:1037E0004A43904202D3200000F0DEFC207D0328F3
:1037F00006D190480068216A401A292800D36D1C20
:10380000207D092806D18B480068216A401AF128DA
:1038100000D36D1C2800C0B200284BD0A020205837
:103820000690200000F06AFB049800280DD0824822
:103830000068844205D1814B814A8249C048FEF725
:1038400037FCE0680499C8600BE07B4F3868A04201
:1038500005D07A4B7C4A7D49B948FEF729FCE068DF
:1038600038606846407B00280BD0208B0290E08AAD
:103870000190201D00902300626AA16D200001F0DC
:10388000A9FC20690190207D694648700294E46893
:103890000298FFF726FA6E4F3E700698002804D073
:1038A0000C21C9430198069A90473878002800D126
:1038B00032E62CE60494E4680498007F401C0499E6
:1038C00008770498007F0499497F884200D223E654
:1038D0003000049908775E4F3000387004989C21BE
:1038E000405800280CD0049904980069049A9C233D
:1038F000D25890476946087304E000BFFF7F00007C
:10390000684606733878002800D000E669460C2027
:103910000856002800D0FFE5049800F083FFFBE57F
:10392000002004909C480668002E3ED0307D0A2876
:1039300005D0424B994A9A498148FEF7B9FB0020CD
:1039400005003C480068316A401AF12800D36D1C1C
:103950002800C0B2002825D0300000F0CFFA04982B
:1039600000280DD08C480068864205D1334B9D4A13
:103970009D497348FEF79CFBF0680499C8600BE012
:10398000854C2068B04205D02C4B984A98496C4829
:10399000FEF78EFBF06820603400F6682000FFF729
:1039A000A0F9C1E70496F668BEE707B0F0BD0000D5
:1039B00044460108B84C0A00F8240100F8B5A04FAD
:1039C0003878401C38701C4800680400002C2FD048
:1039D000A07F3978884229D03878A077A07EC007A8
:1039E0000AD5608B022101436183200000F01AFF99
:1039F000608B944901406183A07E000706D5608BEF
:103A00009149014061832000FFF776FAE56888203C
:103A10002058002808D00E4E00203070200000F002
:103A200019F830780028CED12C00CFE7E468CDE734
:103A3000F1BD0000ECCD0020F8CD0020C02201082F
:103A40006D050000F02D0108710500001C2E010815
:103A50004FCE0020FEB50400002C08D1B04B964A92
:103A600096493748FEF724FB0F20C04366E08820C4
:103A70002058002861D088202058407B6946087073
:103A80008820265801A93000FFF78EF80198882178
:103A9000605094202058002808D0002332002100D4
:103AA000206994256559A847050006E000233200E7
:103AB0002100002000F09EF80500280040B20028F8
:103AC00028D1684600788006D1D501980028CED14B
:103AD000608BC00501D5AA4800E0A948A16A8142CF
:103AE00002D0A06A401CA06294202058002808D070
:103AF00000230022210020699427E759B8470100DC
:103B000000E000210C20C0430A00030052B29A4298
:103B1000ADD113E00C20C0432900020049B291420C
:103B20000CD00198002803D001993000FEF7D8FE90
:103B3000882026500420C04300E00020FEBD000085
:103B40000831010838B50400002C05D02568200094
:103B500000F003F82C00F7E731BD10B50400002C8D
:103B600009D06068002802D06068FEF72FFE2100AF
:103B7000032003F05AF910BD38B504000D00002CE5
:103B800007D1674BCE22D2007E49C148FEF790FA9A
:103B900000E0657531BD0000FCCD0020A1050000EE
:103BA000282C0108F8B50500002D05D15C4B764A9C
:103BB0007649B748FEF77CFA032003F005F90400C4
:103BC000002C01D100200BE01026009527003200C8
:103BD0000099380003F0E0FC6068FEF76DFE2000FD
:103BE000F2BD0000AF050000A8310108B3050000D8
:103BF000D0310108F8B507000D0014001E00002D9B
:103C000009D1474BD322D200A249A148FEF750FA6E
:103C10000F20C04312E0002C07D021892800FFF7B5
:103C2000C7FB2000FEF7D2FD07E0300040B20028BD
:103C300003D12800FFF7B4F900E00020F2BD000036
:103C400051CE0020FCFF0000F7FF0000F8B5040093
:103C50002000C0B2802801DB7F2700E02700380069
:103C6000C0B2002826D07F1E002500958F48066828
:103C7000002E1AD0707D3900C9B288420BD3707DF6
:103C80003900C9B288420ED19A480068316A401A98
:103C90000099884207D397480068316A401A00901B
:103CA0003500707D0700F668E2E7002D02D028009D
:103CB000FFF736FAF1BD000009060000F8310108EF
:103CC000F8B506003000C0B2082809D03000C0B2F4
:103CD000092805D02E4B7F4A7F496D48FEF7E8F949
:103CE0000024270071480568002D11D0287D31007F
:103CF000C9B288420AD17F4801682A6A891AB94242
:103D000004D30068296A401A07002C00ED68EBE72D
:103D1000002C03D000212000FFF776F9F1BD000050
:103D2000C022010870B50024250073480668002EE3
:103D30000CD070480168326A891AA94204D300681D
:103D4000316A401A05003400F668F0E7002C02D012
:103D50002000FFF7E5F970BD38B554480468002C21
:103D60000CD0E568A07E000706D5608B7F49014036
:103D700061832000FFF7C0F82C00F0E731BD0000A0
:103D8000F0140000D83E010882060000F43E01084D
:103D9000C0220108F1B5012003F016F80400002C40
:103DA00043D1FFF7D9FFFFF7BDFF012003F00CF867
:103DB0000400002C31D10920FFF782FF012003F01D
:103DC00003F80400002C20D10820FFF779FF012020
:103DD00002F0FAFF0400002C0FD168460078FFF7CC
:103DE00035FF012002F0F0FF0400002C05D06048F0
:103DF00001680988491E00680180002C05D05C48D4
:103E000001680988491E00680180002C05D05848C7
:103E100001680988491E00680180002C05D05448BB
:103E200001680988491E00680180002C2DD0B0254A
:103E30000026270032002900380003F037FC6846CE
:103E400000786075C920400120674A49E162E16A53
:103E5000A162FF21E17286218900E18606214422C8
:103E6000A1524222A1520021C943A1860121E1644D
:103E700020490968216240490978A17720653F48B7
:103E8000942160508E48A42160502000F2BD0000B3
:103E900008310108103F010880B54020FFF77AFF84
:103EA00002BD00B5002800D0016100BDF8CD0020A2
:103EB00038B504000D00002C0AD0207D012805D162
:103EC0005E4B684A68490548FEF7F2F8A020255085
:103ED00031BD0000DD06000034460108083101084C
:103EE00000B5002804D0027D012A01D102009161B1
:103EF00000BD0000ECCD0020FCCD002010B504007A
:103F0000002C06D14D4B7D4A7D499148FEF7D0F8F3
:103F10002BE0207D002828D0207D0A2825D0207D78
:103F2000012822D088202058002806D08820205838
:103F3000FEF74CFC00208821605084202058002887
:103F400002D0200000F030F90020C043A086E06FCE
:103F5000FFF7F8FD80202058FFF7F4FD0020E06710
:103F6000E16F8022A1507621605210BDF7FF000062
:103F700034CA0020F014000051CE0020F53B0008A8
:103F800070B506000C00002C05D12C4B714A72490B
:103F90006F48FEF78DF8002E05D1284B6F4A704907
:103FA0006B48FEF785F83068A04203D13068C068DE
:103FB00030600AE03068002807D0C168A14202D111
:103FC000E168C16001E0C068F5E70025E560200018
:103FD000FFF794FF207D0A280CD0207D012809D00E
:103FE000A07EC00706D5608B0221014361832000BB
:103FF00000F018FC207D01281CD0E06F002805D0BF
:104000000E4B584A58495248FEF752F88020205823
:10401000002805D0094B554A55494D48FEF748F848
:1040200084202058002805D0044B524A5249484861
:10403000FEF73EF828002075E58270BDC022010819
:1040400010B50400002C05D14C4B4D4A4D49404859
:10405000FEF72EF84C4801684C4A12688918016036
:10406000006810BD0D08000020320108F8B50400FA
:104070000E001700002F05D1404B454A45493448F2
:10408000FEF716F8002E02D1200080B217E0B18CA6
:10409000080080B2002810D0282002000B0092B245
:1040A0009BB29A4201D20D1A00E0002522002B009B
:1040B00092B29BB29A4200D32C00200080B2F2BD93
:1040C00000DD6D00F8B505000F003C00002D06D1A5
:1040D0002A4B9022120130491D48FDF7E9FF002CC0
:1040E0000BD020682968884205D1E6682000FFF7D8
:1040F00017F83400F3E7E468F1E7F1BD5108000078
:104100002C3F010870B504000E00002C1ED0206862
:1041100000281BD0214801682000FFF7D3FF20486A
:1041200001682000FFF7CEFF002E0FD03068002876
:104130000CD01C4800680500002D07D028682168B5
:10414000884201D130682860ED68F5E770BD000055
:104150000831010883080000483F01088408000076
:10416000803A0108930800009C420108940800006E
:10417000643F010896080000B4420108C02201080B
:10418000AF080000803F01080C000020ECCD0020AB
:10419000C508000048320108142A0108F8CD0020A3
:1041A000F0CD0020F4CD002010B50400842020586C
:1041B000002806D084202058FFF7C4FC002084216A
:1041C000605010BD70B504000D001600002C06D024
:1041D000207A002803D0207A03F012FC02E030009D
:1041E00001F076FA70BDFDB50D00089E009800281C
:1041F00005D1424BA32242494248FDF759FF002D09
:1042000005D13E4BA42240493E48FDF751FF300006
:10421000C007C00F8000B10701D5002100E00021D8
:1042200008223240D2B2D2089200F30601D5002310
:1042300000E0002340188018C718032002F0C4FDD6
:104240000400002C04D12800FEF7C0FA002054E03E
:10425000A67200202060656028893900C9B289B241
:10426000884205D2254BB02228492648FDF720FF79
:1042700028893900C9B2401A208114212800FEF78C
:104280005DFA002808D022480188491C01802000DE
:10429000FFF763FC002030E060684068E060009851
:1042A000C08AFEF72EF8E1680870000A487000988E
:1042B000008BFEF726F8E1688870000AC870029843
:1042C000FEF725F8E168091DFEF7F6FC3800C0B2DC
:1042D000042102F0BDFC401D000369460979084332
:1042E00080B2FEF70EF8E1680873000A4873E068D0
:1042F00000218174090AC1742000FEBD1820010844
:10430000803B01088833010838370108144301084D
:1043100020CA0020F0B585B006000F0000240394E9
:1043200000940494002E05D1B34BB44AB449944888
:10433000FDF7BEFEF56F002D02D10020C0431CE149
:10434000380080B2002808D1AB4BAE4AAE498C4849
:10435000FDF7AEFE0520C0430FE13800298980B289
:10436000884201D3002008E1F08E390089B28842EA
:1043700005D2A14BA54AA6498148FDF799FE288997
:10438000002806D19C4BD7229200A2497C48FDF719
:104390008FFEA87A69468871684680790100C9074E
:1043A000C90F880069468979890701D5009400E022
:1043B00000946946897908221140C9B2C9080A00E7
:1043C000D207D20F91006A469279D20601D5220017
:1043D00000E02200009BC018401880186946C87190
:1043E0002889C01B69460881A0229200684600897E
:1043F0006946C979411889B23620FDF7BEFF04909D
:104400000498002800D1A2E0686800892989401A30
:10441000C0196946488168464389684602890498FC
:1044200040686946C97941186868FEF747FB6946E4
:104430000989884200D08AE0E968087B4A7B120635
:10444000120C104380B2FDF75CFF8006800E6946B7
:104450000871200069464871082069460979020000
:1044600011420AD069460979F7220A4069460A7161
:104470006946497908436946487168460079C0072A
:104480000BD568460079FE210140684601716846F7
:1044900040790121014368464171E868001DFEF73B
:1044A000FFFBFDF734FF694689790091390089B235
:1044B00043186846427904993000FFF794FE039050
:1044C0000398002843D06868FEF7ECF97421715A0C
:1044D000081A742170526868008969460989411A6E
:1044E00089B26868FEF784F8288969460989401A04
:1044F00028816846007980B2FDF703FFEA68117BE6
:10450000537B1B061B0C1943EA6808431073000A0F
:1045100050736868FEF7C6F97421715A081874213F
:10452000705203984068FEF7BDF97421715A08185B
:1045300074217052286803990860039828600398D2
:104540000068002801D176203452002015E00D4883
:104550000188491C01800398002806D0264BF622CA
:1045600092009B490648FDF7A3FD0498002802D05D
:104570000498FEF72BF90020C04305B0F0BD000001
:104580008833010818CA002038B50400002C05D172
:10459000194B904A90499148FDF78AFDE06F002839
:1045A00024D0E56F2868002801D02D68FAE7E96873
:1045B000087B4A7B1206120C104380B2FDF7A1FE65
:1045C000400713D10120FDF79CFEEA68117B537B65
:1045D0001B061B0C1943EA6808431073000A50734A
:1045E000608B202101436183002003E00121200032
:1045F00000F012F832BD0000182001084B03000043
:104600005C37010853030000803701085B0300009A
:10461000A4460108B4460108F3B583B004000025A0
:104620002E0028006946087103276846007C38423E
:1046300005D16B4B6B4A6C496848FDF739FD002C7E
:1046400005D1674B694A6A496448FDF731FD02218B
:104650006846007C08420AD001200600207D03281D
:1046600002D1608BC00502D5300008260643300019
:10467000C007C00F80000E4201D0290000E02900D1
:1046800008223240D2B2D2089200F30601D52B00A4
:1046900000E02B0040188018C01869460871A0225D
:1046A00092006846017989B23620FDF766FE0290D5
:1046B00000280AD1608B8021014361834D48018825
:1046C000491C01800020C04372E00298408969467D
:1046D000097989B2884205D2414B474A47493F4848
:1046E000FDF7E6FC3000C0B20090636E6846027CC5
:1046F00002992000FFF777FD009000280AD1608B17
:104700008021014361833B480188491C01800020CE
:10471000C0434DE00098C068384205D0304B384A5D
:1047200038492E48FDF7C4FC00980089002805D0C0
:104730002B4B354A35492948FDF7BAFCE06F002874
:1047400002D10098E06707E0E06F0168002901D01E
:104750000068FAE700990160762025526846007CDF
:10476000384202D0606E401C60666846007CC0071C
:1047700003D5608B20210143618300984068FEF7D8
:1047800091F87421615A0818742160527420205ADB
:1047900000280CD080202058002808D1E06F002885
:1047A00005D10F4B1A4A1B490C48FDF781FC00202C
:1047B00005B0F0BD10B50400002C05D1084B164A19
:1047C00016490648FDF774FC1548206010BD00002E
:1047D0009C470108EB0300004440010888330108AE
:1047E0001820010812040000E0230108130400004F
:1047F000A03B010818CA00203A0400001427010851
:10480000420400002C43010843040000CC2E0108A0
:1048100066040000B0330108C5040000F82E01084A
:1048200001030300F8B586B00400002C05D1884BC5
:10483000884AC049C048FDF73BFC207D012805D1CE
:10484000834BBE4ABE49BC48FDF732FCBD480068F8
:10485000A04201D100206BE1A06EE16C884202D23F
:10486000A06E039001E0E06C0390E66F002E07D18C
:10487000A07E800703D5200000F0F6FC58E152E14D
:10488000221D21002000FFF79DFC029002980028C5
:1048900002D10320C0434BE1002C02D02068002845
:1048A0000DD10298002802D00298011D00E00021DD
:1048B000002902D10320C0433AE108682060F06873
:1048C000001DFEF7EDF9FDF722FD0399A26C801A99
:1048D0003289801881421CD20398A16E884210D17F
:1048E0008020205800280CD1A920205C002808D165
:1048F00000200100A822A1540121A922A154AA212B
:104900006054A07E800703D5200000F0ADFC0FE1CD
:1049100009E10020A9216054802020580700002FC1
:1049200004D03868002801D03F68FAE7002E00D193
:10493000F3E0F068001DFEF7B3F9FDF7E8FC03991A
:10494000A26C801A32898018814200D2E5E0F168B9
:10495000087B4A7B1206120C104380B2FDF7D1FC93
:10496000400705D53A4B814A81497348FDF7A0FBC2
:104970008020205800281DD0A07E4421014000291D
:1049800018D1E06F002808D0E06F0068002811D12E
:10499000E06F0089E18E88420CD29C48216F8142F1
:1049A00001D2206FFFE780B2002803D07420205A84
:1049B000282801DB012000E00020002805D1A07E8E
:1049C000A0210140002900D1A7E0207D02280DD0C0
:1049D0001020FDF796FCF268117B537B1B061B0C25
:1049E0001943F26808431073000A5073029A2100B9
:1049F000300000F0C1F86946087169460420085685
:104A0000002807D0608B8021014361836946042020
:104A100008568DE03068E067207D022803D0608B67
:104A2000544901406183F068001DFEF739F9FDF734
:104A30006EFC0090F168087B4A7B1206120C104352
:104A4000032580B2FDF75DFC284205D0012004E07B
:104A500018200108E104000000200099328989181B
:104A600008180490A06D0499401A002801D50498F4
:104A7000A065F168087B4A7B1206120C104380B2D5
:104A8000FDF73FFC284201D0012000E000203189E1
:104A9000081800283BD000203060802020580028D3
:104AA00003D180202650370034E0F068001DFEF767
:104AB000F7F8FDF72CFC0500F868001DFEF7F0F88C
:104AC000FDF725FC281A00281ED52500803528680A
:104AD000002815D02868C068001DFEF7E1F8FDF732
:104AE00016FC0590F068001DFEF7DAF805990091B4
:104AF000FDF70DFC0099081A002801D52D68E6E79E
:104B0000286830602E6005E03E603F6802E03000BB
:104B1000FFF723F8E06F060008E7E06F002802D1F6
:104B2000002076216052608BC149014061830020E2
:104B300007B0F0BD4443010888330108E4040000D5
:104B4000D833010818CE002010B50400002C05D180
:104B5000A84BA94AA949C248FDF7AAFA6068807B18
:104B6000012801D0012000E0002010BD3705000021
:104B70005C430108FCFF0000F4B584B004000D00A4
:104B8000002C06D19B4BB722D200AA49B448FDF7AE
:104B90008FFA002D05D1974BB24AB349B048FDF7C3
:104BA00087FA0498002805D1924BB04AB049AC4826
:104BB000FDF77EFA2000FFF7C7FF002801D0002094
:104BC000C5E0686AFDF7A3FBE1680831FEF774F8F9
:104BD000A07A00070DD50D48E96A814201D2E86A42
:104BE000FFE780B2FDF78DFBE1688873000AC873A8
:104BF00015E00648E96AAD22AA5CD140814207D29D
:104C0000E86AAD21695CC84002E000BFFFFF000018
:104C100080B2FDF776FBE1688873000AC873686AA2
:104C2000E96A40182863E06806001436A07AC007D5
:104C30000FD52A1D049986208000FFF717FA070078
:104C4000390089B2812080040843FDF760FB3060A1
:104C5000361D0827A07A3900084203D03000FFF73C
:104C6000A9FD361D3420285E002801D50020A88625
:104C7000A86B002809D1A5480068A863E068001D5A
:104C8000FEF70EF8FDF743FBE863E06861684968EA
:104C9000401A694688816068408969468989401A56
:104CA000616848816068008969468989401A61683D
:104CB0000881E06861684860E06800210174090AC1
:104CC0004174A07A0100C907C90F8800A17A890739
:104CD00001D5002100E00021A27A17403A00D2B2AB
:104CE000D2081300DB07DB0F9A00A37ADB0601D59D
:104CF000002300E00023E768381840188018C01827
:104D00001430864205D03B4B9C4A9D495448FDF7E0
:104D1000CFF9281D00902B00606802890621606889
:104D2000FDF7D3FAE1680874000A4874C3480188A3
:104D3000491C01800498029006200190A87A0090F6
:104D4000EB7A2A1D2900606800F060FE40B205B0D1
:104D5000F0BDF8B50500002D05D1264B894A8A49DA
:104D60003F48FDF7A5F980202858002802D10520EA
:104D7000C0433EE080202C582068002809D0200045
:104D8000FFF7E2FE002802D00520C04331E024688E
:104D9000F2E72000FFF7D8FE002802D00520C0432C
:104DA00027E0E86F206080202858E86700278020EF
:104DB0002F50688B8021090101436983E068001D41
:104DC000FDF76EFFFDF7A3FA0600E168087B4A7B5A
:104DD0001206120C104380B2FDF793FA800701D03F
:104DE000012000E038002189711808186865AF6358
:104DF0000020F2BD182001089A05000000340108C7
:104E000010B50400002C06D1A64BD322D200A6492F
:104E10001348FDF74DF94620205CFF2804D04620BA
:104E2000205C401C462160542000FFF7FBFC10BDB5
:104E30007FFF0000C03B010810B50400002C05D125
:104E4000984B9A4A9A490648FDF732F92000FFF735
:104E500080FF002802D12000FFF7D2FF10BD000024
:104E600088330108B9050000E03B0108BA050000DD
:104E7000A4370108F8B50500002D05D1894B8D4AEE
:104E8000AC49AD48FDF714F980202858002802D11C
:104E90000520C04339E080202E583000FFF754FE33
:104EA000002802D00520C0432FE0306880216850E0
:104EB0002C007C342068002812D02068C068001DB7
:104EC000FDF7EEFEFDF723FA0700F068001DFDF781
:104ED000E7FEFDF71CFA381A002801D52468E9E737
:104EE0002068306026603068002802D100207621DA
:104EF00068524620285CFF2804D04620285C401CCD
:104F0000462168540020A8630020F2BDECCD0020AB
:104F100038B50400002C05D1624BAC4AAC49CD48F1
:104F2000FDF7C6F880202058002826D00425608B85
:104F3000284222D12000FFF79DFF00281DD1E06C00
:104F4000A16E884201D2E06C00E0A06E40082065AE
:104F5000206DE18E02224A43904203D2E08E02216C
:104F600041432165206DE18E03224A438018E064AD
:104F7000608B054365830020A08631BD1C060000C0
:104F8000FC44010863060000C8370108FDB50D00A8
:104F90000B9FA0229200684680882918143189B29C
:104FA0002220FDF7EAF90400002C45D06089290091
:104FB00089B21431884205DA3A4BA74AA749A54875
:104FC000FDF776F8606806006846008CFDF799F9F1
:104FD0003070000A70706846808CFDF792F9B070EE
:104FE000000AF070311D0298FDF766FE0098FDF78B
:104FF0008EF931000831FDF75FFE280080B20421F0
:1050000001F026FE401D00030AA90978084380B27A
:10501000FDF777F93073000A7073380080B2FDF73E
:1050200070F9B073000AF07300203074000A7074D5
:105030000020B074000AF0742000FEBD0CCA0020ED
:10504000F8B584B004000F0016001D00002C05D137
:10505000144B834A83493848FDF72AF8C248E16A6D
:10506000AD22A25CD140814204D2E06AAD21615CF4
:10507000C840FFE780B2039010200290208B01907F
:10508000E08A00902B00320092B2390089B2606A47
:10509000FFF77CFF002803D0616AE26A8918216368
:1050A00005B0F0BD18200108EC370108AD0600007E
:1050B00060400108C1060000F9B585B00E0015007A
:1050C00000242700002E05D1A84BA94AA949614810
:1050D000FCF7EEFF706802900298143003902800ED
:1050E000C007C00F8000A90701D5019400E001941A
:1050F00008212940C9B2C9088900EA06FFD4039AE9
:105100000092029B9C463B009BB204225A4363469A
:105110009A181018019A8018401800191430009A33
:10512000824205D0914B944A94494A48FCF7C0FF0B
:1051300007B0F0BD7443010888330108FDB584B0A1
:105140000D00002D05D1894B8D4A8E494148FCF751
:10515000AFFF069A05990498FFF734F80390039877
:10516000002802D10326F64328E06C6806980090D8
:10517000059B2A8906212800FDF7A7F82074000A5C
:1051800060740498002804D00498C77A0498847A3C
:1051900001E0FF270024C6480188491C01800398CC
:1051A0000290062001902000C0B200903B00DBB2CC
:1051B000069A0599280000F029FC06002800FDF752
:1051C00005FB300040B207B0F0BD0000F90600005A
:1051D000003C0108F7B586B01F000E9E002F05D1D8
:1051E000624BB44AB4491B48FCF762FF002E05D15C
:1051F0005E4BB24AB2491748FCF75AFF0025B14846
:10520000694608820798FDF782F86946098A039182
:105210001421029110A9098801916946898F009192
:10522000030000222900C9B289B20898FFF7AEFE38
:105230000400002C0CD02B00DBB2002221000698C9
:10524000FFF73AFF33003A0021000698FFF776FF98
:1052500009B0F0BD8833010824070000882C01083C
:105260004207000028340108F8B505000024260094
:10527000200069460870002D05D13C4B924A9349A5
:105280009348FCF715FF3000C007C00F8000B1073E
:1052900001D5210000E0210008223240D2B2D2081C
:1052A0009200F306FFD4401880180719A86DFDF787
:1052B0002EF8030000223900C9B289B22800FFF796
:1052C000BFFE0400002C06D1688B032101436983D3
:1052D0000120C0431BE0684603783200D2B22100AF
:1052E0002800FFF7E9FE2B1D2A0021002800FFF708
:1052F00025FF010049B2002904D0698B03220A432B
:105300006A8303E0698B734A0A406A8340B2F2BD44
:1053100070B504000026002C05D1144B6E4A6F496D
:105320006B48FCF7C5FEA06D401EFCF7F0FF0300C4
:1053300000223100C9B289B22000FFF781FE0500CA
:10534000002D02D10020C0430DE03300DBB200226B
:1053500029002000FFF7B0FE231D220029002000B5
:10536000FFF7ECFE40B270BDFFFF000018200108FF
:10537000560700005034010875070000FC4401087E
:1053800087070000242F0108F8B584B00400002628
:10539000300069460870002C05D1514B514A5249E2
:1053A0004B48FCF785FEE06F01900198002801D181
:1053B00000207AE0AA20205CFF2804D0AA20205CEC
:1053C000401CAA2160540198C168087B4A7B1206E0
:1053D000120C104380B2FCF794FFC00705D501986A
:1053E0000089002801D1012500E035002800C0B265
:1053F000002800D101260198C068001DFDF750FC6F
:105400000300320092B26846017889B22000FFF7AB
:1054100017FE02900298002802D10020C04344E009
:105420000298406803902800C0B2002810D01120D4
:10543000FCF767FF039A117B537B1B061B0C194378
:10544000039A2A4B0B4018431073000A507310E064
:105450000298406807001437019840680089019954
:105460000989431A9BB20122390001984068FDF76F
:1054700025FB0198C068001DFDF712FCFCF747FFF3
:1054800007007F1CA06DC01B002800D5A7656846DB
:105490000378002202992000FFF70EFE231D220050
:1054A00002992000FFF74AFE40B205B0F0BD0000AF
:1054B0000CCA0020C40700007C400108C50700009A
:1054C0009840010814F00000EA070000203C0108A1
:1054D00088330108FCFF000024080000B4400108E4
:1054E000182001084F08000010380108FFC0000014
:1054F00010B50400FDF715FC68480068002803D1CA
:1055000067480068002805D000226649FA2000F0AC
:1055100087F802E000206449086010BD80B5624849
:10552000016800290ED15D490968002903D15C4951
:105530000968002906D00121016000225949FA209A
:1055400000F06EF801BDF1B50F001600062001F065
:105550003BFC0500002D08D1002D05D1534BBE2288
:1055600053495448FCF7A4FD2AE000202860AF60AE
:10557000EE600098686050480168002901D105601C
:105580001EE0802109066A6803685B68D21A8A42B5
:1055900003D301682960056012E000680400002C54
:1055A0000ED02068002805D0686822685268801AEA
:1055B000884203D320682860256001E02468EEE774
:1055C000F1BDF8B5040026007068804702F03EFA8D
:1055D00005003A48006831684718781B80210906A1
:1055E000884206D32200364930682818FFF7ABFFFF
:1055F00004E0220032493800FFF7A5FFF1BD10B5E5
:105600000124032C0BD22F480821614342182C4956
:1056100008236343C05800F003F8641CF1E710BD91
:10562000F8B505000F0016008020C005854206D39E
:105630001E4BFF222A3224491E48FCF739FD02F096
:1056400005FA4419320039002000FFF77CFFF1BD54
:10565000F8B502F0FBF906001C480078002801D0DC
:10566000FCF764FE14480468002C16D06168711AB7
:1056700080221206914210D221680160A568E76875
:1056800060680E4908602100062001F0CEFB28006A
:10569000002801D03800A847DEE7F1BDF8CD002092
:1056A000FCCD0020F154000830CE00207C20010801
:1056B000982601087834010828CE00202CCE00203E
:1056C000C35500088C430108A42801084ECE0020D1
:1056D00010B501002B480268002A1ED02D20105C56
:1056E00005230340052B16D15068002813D0086805
:1056F00093680340506894680440A34201D11000AD
:1057000027E02D20105C800705D40868D3689842F4
:1057100001D110001DE01268DEE7B8480368002BD5
:105720000ED003682D241B5D05241C40052C07D1D9
:1057300003685B68002B03D00B78DBB27F2B07D1AB
:10574000AF485623C35A5B1C56240353002000E085
:10575000006810BD10B504002D20205CC0070FD5D7
:10576000606800280CD0A74841696268914205D062
:1057700021004069FCF7B0FC002801D0012000E0C6
:10578000002010BDE0CD0020F3B583B0070001205C
:1057900002909B4C4A20205A401C4A216052786853
:1057A000009000980078C0B20009C0B204280ED062
:1057B0003800FDF70BF85C20205A401C5C21605239
:1057C0004E20205A401C4E216052002013E10098C8
:1057D00000780007000F04214843C0B26946888062
:1057E00000998878CA781206120C104380B2FCF730
:1057F00088FD6946C8806846C0883989884204D2D5
:105800006846C1883800FCF7F3FE788969468988C4
:10581000884208D338896946C988884203D36846D4
:10582000808814280EDA3800FCF7D0FF5220205A66
:10583000401C522160524E20205A401C4E21605282
:105840000020D8E0684681880098FCF74EFD0028CB
:105850000ED03800FCF7BAFF5020205A401C5021CF
:1058600060524E20205A401C4E2160520020C2E05F
:1058700000981030FDF714FA624E706100980C30F9
:10588000FDF70EFA3061307DF0210140E0290CD1A6
:1058900004982D21405CC00705D504984068002875
:1058A00001D0049D1CE000251AE00498FFF752FF88
:1058B000002801D0049D13E00025307DC0B27F2870
:1058C0000ED0514800680500002D09D0049885428B
:1058D00004D02800FFF73EFF002801D12D68F3E730
:1058E000002D15D10098407A112811D100986946F1
:1058F000898840188178C2781206120C11438622DA
:10590000D20189B2914203D104990D000021029184
:105910000298002817D03069002814D00499306903
:10592000FCF7DAFB002804D1307CF0210140E029AB
:1059300009D13800FCF74AFF4E20205A401C4E2166
:105940006052002057E0002D09D14E20205A401C03
:105950004E2160523800FCF739FF00204BE00099DF
:105960008879CA791206120C1043A6490140002911
:1059700009D0380002F040FB0700002F01D10020C1
:1059800039E0786800903560049870600098B060E5
:10599000009800780007000F04214843C0B2B0818E
:1059A000684681883800FCF7D2FE0098407A0628C5
:1059B00006D0112809D10499380002F0D5FE11E073
:1059C00004993800FAF77AFB0CE05820205A401C62
:1059D000582160524E20205A401C4E2160523800FF
:1059E000FCF7F4FE002030607060B0600100B1810F
:1059F00030617061002005B0F0BD0000E4CD0020F2
:105A00007CC90020F8CC0020E0CD0020F1B584B0A6
:105A10000C0016001F000C9D0394002E06D0002CD5
:105A200002D02068002801D1281D039002950BA800
:105A3000007801900AA8007800903B00DBB23200A9
:105A40000399049800F002F805B0F0BDFFB583B0EB
:105A500006000E9F0025B07B012806D06A4BD52298
:105A600092006A496A48FCF723FB0598002800D198
:105A70009AE014206946888014213000FCF75EFE0D
:105A8000002808D063485C21415A491C5C2281529D
:105A90000120C043B4E074687089142805D25A4BC1
:105AA0005D4A5E495A48FCF703FB6846007E207257
:105AB0000DA8007860720DA8007800026946097E82
:105AC000084380B22D182100103105980068FDF7B9
:105AD000F3F820001030FDF7E3F880B22D18200015
